:100000000C94A4070C94CC070C94CC070C94CC074C
:100010000C94CC070C94CC070C94CC070C94CC0714
:100020000C94CC070C94CC070C94CC070C94760A57
:100030000C94CC070C94CC070C94CC070C94CC07F4
:100040000C942C0A0C94CC070C94CC070C94CC0781
:100050000C94CC070C94CC070C94CC070C94CC07D4
:100060000C94CC070C94CC07F31FFB1F03200B2030
:1000700013201D2025202D2035203D200101FF03C8
:100080000101F70341626F75740048696768207366
:10009000636F72657300506C61792028636C6173C3
:1000A0007369632900506C617920286E6577290097
:1000B00080007C0000000000240027002A000000CF
:1000C0000000250028002B000500893008023802B6
:1000D000497868140000A50096008A008400583012
:1000E000AAAAB000000002BFFFFFF0AEFBF00000C4
:1000F00000057FFFFFF0BFCE8000000000AEFFFFD5
:10010000F0F80080000000015FFFFFF0F801C00080
:10011000000000ABFFFFF0B000800000000057FFC0
:10012000FFF07001400000000002AFFFF0F000801F
:100130000000000015FFFFF0D000000000000000EC
:10014000ABFFF0E10000000000000157FFF0750078
:100150000000000000002AFFF0EB0000000000009B
:100160000017FFF03F000000000000000ABFF07E13
:100170000000000000000005FFF00C00000000007F
:10018000000002AFF04C0000000000000005FFF08E
:10019000140000000000000000BFF00C0000000090
:1001A000000000017FF0540000000000000000AFDC
:1001B000F02C00000000000000017FF0584000001B
:1001C0000000000000ABF06D4000000000000000E7
:1001D00057F05AC0000000000000002AA02FC00005
:1001E00000000000000055F01F800000000000002B
:1001F000000AA09800000000000000000550080060
:100200000000000000000000209800000000000036
:10021000000000500800000000000000000000087E
:100220000000000000000000000038000000000096
:10023000000000000010800000000000000000002E
:100240003A80000000000000000000B580000000BF
:100250000000000000007F8000000000000000009F
:10026000007F00000000000000000000F800000017
:100270000000000000000058000000000000000026
:100280000000B8000000000000000000001800009E
:100290000000000000000000A800000000000000B6
:1002A00000000058000000000000000000002800CE
:1002B00000000000000000000048000000000000F6
:1002C000000000002800000000000000000000FF07
:1002D000FFFFFFFFFFFF07FFFFF00000000000022D
:1002E000AF7FFFFFF00000000000005FFFFFFFF0A6
:1002F0005830020000000000000000000002000072
:1003000000000000000000000200000000000000EB
:1003100000000002000000000000000000000200D9
:1003200000000000000000000002000000000000CB
:1003300000000000FF80000000000000000000003E
:1003400080000000000000000000008000000000AD
:10035000000000000000800000000000000000001D
:10036000FF8000000000000000000002000000000C
:10037000000000000000020000000000000000007B
:100380000002000000000000000000000200000069
:10039000000000000000000200000000000000005B
:1003A0000000020000000000000000000002000049
:1003B0000000000000000000FF80000000000000BE
:1003C000000000008000000000000000000000802D
:1003D000000000000000000000008000000000009D
:1003E00000000000FF80000000000000000000028C
:1003F00000000000000000000000020000000000FB
:1004000000000000000200000000000000000000EA
:1004100002000000000000000000000200000000D8
:1004200000000000000002000000000000000000CA
:10043000000200000000000000000000FF8000003B
:10044000000000000000000080000000000000002C
:10045000000000800000000000000000000080009C
:100460000000000000000000FF800000000000000D
:100470000000000200000000000000000000020078
:10048000000000000000000000020000000000006A
:100490000000000002000000000000000000000258
:1004A000000000000000000000000200000000004A
:1004B000000000000003FFFFFFFFFFFFFFFFFFF052
:1004C00004080002000040001000000810000200B4
:1004D0000040000800001010000400002000080088
:1004E0000020200004000020000400004020000440
:1004F00000002000040000804000080000100002FE
:1005000000005830000000000000BFFFFFFFF000B7
:1005100000000007857FFFFFFFF0000000001FE0E4
:100520002FFFFFFFF0000000003C115FFFFFFFF016
:100530000000000038002FFFFFFFF00000000070F7
:100540000057FFFFFFF00000000070000BFFFFFFEF
:10055000F000000000700157FFFFFFF000000000F6
:1005600070000ABFFFFFF0000000003000457FFF71
:10057000FFF000000000380002AFFFFFF0000000B5
:10058000001C00155FFFFFF0000000000780000B5B
:10059000FFFFF00000004400000055FFFFF00000E6
:1005A000000000000002BFFFF00000015510003104
:1005B00015FFFFF00000008800003000BFFFF000D2
:1005C000000555540060057FFFF0000002AAA00F4F
:1005D000E0002FFFF0000055FFD51DFD815FFFF00B
:1005E00000400BFFAA087FC00FFFF0014057FFF546
:1005F00040610057FFF000C02FFFFA8067802BFF9B
:10060000F001C15FFFFF5062815FFFF00180AFFF2B
:10061000FFA0E1000BFFF000017FFFFFD4E00057D7
:10062000FFF000002FFFFFA0C0000AFFF000017FD5
:10063000FFFFF5C0015FF5700000BFFFFFE8C000DD
:100640000AAAB000057FFFFFF5C00457D050000292
:10065000FFFFFFEBC0002A80200095FFFFFFFDD1C8
:10066000155F401000ABFFFFFFFBC000BA80000128
:10067000D7FFFF3FFF75557F401001FFFFFFAFEE33
:10068000E22AFF800001FF93FF97CF7D5FFF4010BC
:100690000127913F2EAE7ABFFFA0000124927F97E1
:1006A0004F7FFFFF5010012492BFAAAE7FFFFFE8EB
:1006B000300124925F154E7FFFFFF550012492AA6E
:1006C000AAAC7FFFFFFFF00124905515467FFFFF86
:1006D000FFF0012492AAAAAC7FFFFFFFF001249251
:1006E00055154C7FFFFFFFF0012492AAAAAC7FFFB3
:1006F000FFFFF001FFFFFFFFFFFFFFFFFFF0000024
:1007000000000002AFFFFFFFF0000000000000004B
:1007100000000000583000402100000000000000F0
:100720000000A04200000000000000000090420015
:100730000000000000000001300202000000000084
:1007400000000029000200000000000000008802F4
:100750000400000000000000000A04040000000083
:100760000000000012040000000000000000006211
:100770000808000000000000000000000800000061
:100780000000000000002008000000000000000041
:100790004040100000000000000000A080000000A9
:1007A0000000000000012880200000000000000080
:1007B0000114002000000000000000000480400040
:1007C00000003EE0000000448040000000C1100036
:1007D00000004803000000070088000000101C0013
:1007E0000000088088000000104000000008040499
:1007F0000000002080000000080804000000410004
:1008000000000008080400000001000000000408C7
:100810000800000010000000000B0808000000A8FD
:100820000000000010449400000148000000001087
:10083000804200000008000000001080420000001C
:100840000800000000084082000000900000000046
:100850000808020000012000000000044C84000091
:10086000002000000000032108000000200000001C
:100870000000923000000040000000000073C00043
:100880000000000000000000120000000000000056
:100890000000001200000000000000000000120034
:1008A0000000000000000000001200000000000036
:1008B00000000000110000000002010040010011D2
:1008C000000000000A018050014011000000002CCF
:1008D00003002002401100000000000000000000A2
:1008E00000000000000800020000400010000000AE
:1008F000100002000040000800000010000400008A
:100900002000080000002000040000200004000077
:100910000020000400002000040000004000080047
:100920000010000200000806FCCC8484CCFC080601
:100930003030FCFC30300806003078783000080693
:10094000000000000000180F1FFD003FA5003FFF42
:10095000807E008066FE8042FE8042FE80660080CF
:100960007E28807E0080FFFF80DE7C807FFF8039D4
:10097000C70039C700000000181000600000900098
:100980001FF8002004004F9A004892004F9F00403B
:10099000008080C04081E0C081E0C080C040980CF1
:1009A00040E7F3C0241200180C0018100000003FAC
:1009B000FD803FFF803FD0803FFE803FFE803FFEB6
:1009C000803FD0803FF8803FD0803FFF803FFC8059
:1009D0003FFF803FFF800000000000001810000073
:1009E00000000000000000000000000400070C00F0
:1009F00000000000000000000000000000000000F7
:100A000000000000000000000000000000001810BE
:100A1000000000000000000000000000003E000098
:100A20003E00003E00000000002800000000003FE3
:100A300000003C000000000000000000000000007A
:100A4000181000000000F0001FF8003FFC007FFAC3
:100A50000078F2007FFF007FFF807FFF807FFF80B4
:100A60007FFF807FFF807FFF801FFC001C1C000039
:100A70000000080670D070E07060000807E0E0E059
:100A800040704070080870D878E070782820080816
:100A9000040E1F6E1428C8400808386C3CF07860BB
:100AA000D010080870707028F0203048080860588E
:100AB000F860F8E050900008097070702070A8206D
:100AC0002050080506D63DFF34080520977F97087B
:100AD00010086006581AF81F6006F81FE7E753CAA7
:100AE000900900001009E01CE01CE01C40086018A0
:100AF0005FE840084008A01417736176650016622D
:100B000061636B001574797065000A0A0A153A6F03
:100B10006B617920163A6564697400596F752065B8
:100B20006E74657265640A001753440016137800EA
:100B3000161314001510200015201000540A03E1AC
:100B400081867F3E186D830F0F0E018386603318F8
:100B50006DC3198F1803C38E6033186DE330CF183F
:100B600003C39E603630CDE360CF3006C79E7E3E25
:100B700030CDB360CF300CC6F6603330D9B660CF1D
:100B800033CFCCF66061B0DB1E60CF30D86CE6C0EE
:100B900061B0DB1E618F19986CC6C063B19B0E33C8
:100BA0000F0FB078C6FF7E1F1B061E0F401EE00011
:100BB00000078E78E060E000000FEC0DF9F0E00037
:100BC000001FF80F1F98FC00001818060E0CE3C059
:100BD00000781004040DE23800EC07038007E209F6
:100BE00081801FCFC1C1E20F110018D8E7F0E20EDB
:100BF000C10630603E78E20FC18F30403C38E20FD2
:100C000080D9E000181CE20F801080300027FA0F16
:100C1000000000700001FE0F000070700000FFCEA9
:100C20000060F0780000FFFA0040E0618001FFF80A
:100C3000014078E7E001FFF803C00C8FF00BFFF9EB
:100C400003C0049FF80EFFFA87C807FEF81EFFFFD7
:100C5000878827FC7823FFFFCB3803EC7001E7FF80
:100C6000F8D8032E6007E3FFF8C20126F47EE0FF08
:100C7000FF60833073E0E078FFFF861E0000E00035
:100C800007FF1C1C0000E00001F81E0E0000E00041
:100C900000000F060000E0000000000000004669B0
:100CA00072654275696E6F21004849474820534379
:100CB0004F524553000500380168010000050068E7
:100CC0000138010000450068010000F6E8DBCFC3F1
:100CD000B8AEA49B928A827B746E68625C57524E57
:100CE0004945413E3A3734312E2C29272523210A04
:100CF0000A153A49676E6F7265006D560A0A504CC4
:100D000045415345205455524E204F464620004CF5
:100D10004F57204241545445525921200003053F6A
:100D2000213F1208120A100A0E1C0E0C1E0C141A77
:100D300014161F161E131E1E1B1E1E1F1E3F213FB4
:100D40003A2F3A173D173F213F181F02040A041F8C
:100D50000E04040E1F0A1F0A0E0E1F04110E2E256C
:100D60002E2F2A2E262929021F02081F08150E04DD
:100D7000040E150E15151B151B040604040C0400A7
:100D800000000017000300031F0A1F16371A19047A
:100D9000130A153A000300000E11110E000A040A8E
:100DA000040E040030000404040010001804031FA3
:100DB000111F121F101D151711151F07041F1715DE
:100DC0001D1F151D01011F1F151F17151F000A00EC
:100DD000003200040A110A0A0A110A040115020E5F
:100DE00011171E051E1F150A0E110A1F110E1F15C1
:100DF000111F05010E111D1F041F111F1108100FD7
:100E00001F041B1F10101F061F1E040F0E110E1FA4
:100E100009060E112E1F051A121509011F011F10B8
:100E20001F0F180F1F0C1F1B041B031C0319151386
:100E3000001F11030418111F0002010220202000CE
:100E400001020C121E1F120C0C12120C121F0C1A93
:100E500014041E05242A1E1F021C141D1020201D10
:100E60001F0814111F101E041E1E021C0C120C3E23
:100E70000A040C123E1E040214160A020F120E106F
:100E80001E0E100E1E081E120C1226281E322A26B6
:100E9000041E21001F00211E040102013F213F17F3
:100EA0002B152010204C4F4144455200172B162083
:100EB0001314000A4E6F2053442063617264206F44
:100EC000720A6E6F204C4F414445522E4845580AD5
:100ED0000A153A45786974001D20466C617368698B
:100EE0006E670A20206C6F616465722E2E2E0A0ACE
:100EF000444F4E2754205455524E204F4646210011
:100F00000000000023002600290004040404040457
:100F100004040202020202020303030303030102A8
:100F20000408102040800102040810200102040877
:100F30001020000000080002010000030407000068
:100F4000000000000000842411241FBECFEFD8E071
:100F5000DEBFCDBF12E0A0E0B1E0E6E2F0E502C006
:100F600005900D92AC33B107D9F725E0ACE3B2E0C0
:100F700001C01D92A434B207E1F717E0C4EAD7E03C
:100F800004C02197FE010E94EB27C33AD107C9F79D
:100F90000E94F2170C9411280C940000CF92DF925B
:100FA000EF92FF920F931F93CF93DF936C017A011F
:100FB0008B01C0E0D0E0CE15DF0589F0D8016D913E
:100FC0008D01D601ED91FC910190F081E02DC601DB
:100FD0000995892B11F47E0102C02196ECCFC7013F
:100FE000DF91CF911F910F91FF90EF90DF90CF9005
:100FF0000895089580E090E008950E940528611505
:10100000710579F0FB0101900020E9F73197AF01FC
:10101000461B570BDC01ED91FC910280F381E02D22
:10102000099480E090E00895CF93DF9300D000D042
:10103000CDB7DEB7611571058105910579F09B018A
:10104000AC0169833A834B835C830E940A26298121
:101050003A814B815C810E942E2603C060E070E0E3
:10106000CB010F900F900F900F90DF91CF910895CB
:101070004F925F926F927F92EF92FF920F931F9326
:10108000CF93DF93CDB7DEB7A1970FB6F894DEBF4D
:101090000FBECDBF7C01FA01CB0119A2223008F4AA
:1010A0002AE08E010F5D1F4F422E512C612C712CB6
:1010B000BF01A30192010E946026F901CA010150FB
:1010C00011096A3014F4605D01C0695CD8016C9349
:1010D000232B242B252B61F7B801C7010E94FF07A2
:1010E000A1960FB6F894DEBF0FBECDBFDF91CF91B2
:1010F0001F910F91FF90EF907F906F905F904F90B6
:101100000895DC01ED91FC910190F081E02D0994AE
:101110000C94FF07EF92FF920F931F93CF93DF93EF
:101120008C017B01C0E0D0E0F701EC0FFD1F649162
:10113000662361F0D801ED91FC910190F081E02DE2
:10114000C8010995892B11F02196EECFCE01DF91D0
:10115000CF911F910F91FF90EF9008950F931F93E0
:10116000CF93DF93EC010E948A088C0161E372E067
:10117000CE010E94FF07800F911FDF91CF911F9139
:101180000F910895833081F028F4813099F08230F6
:10119000A1F008958730A9F08830B9F08430D1F4F7
:1011A000809180008F7D03C0809180008F77809335
:1011B0008000089584B58F7702C084B58F7D84BD8B
:1011C00008958091B0008F7703C08091B0008F7D2B
:1011D0008093B00008951F93CF93DF93282F30E0C2
:1011E000F901EE5CF04F8491F901E25EF04FD49189
:1011F000F901E65FF04FC491CC23C9F0162F81119D
:101200000E94C208EC2FF0E0EE0FFF1FE254FF4FE8
:10121000A591B4918FB7F894111105C09C91ED2F51
:10122000E095E92302C0EC91ED2BEC938FBFDF91A9
:10123000CF911F910895CF93DF9390E0FC01E25E80
:10124000F04F2491FC01E65FF04F8491882361F117
:1012500090E0880F991FFC01EC54FF4FC591D49189
:10126000FC01E254FF4FA591B491611109C09FB7F1
:10127000F8948881209582238883EC912E230BC0DB
:10128000623061F49FB7F8943881822F8095832370
:101290008883EC912E2B2C939FBF06C08FB7F894B8
:1012A000E8812E2B28838FBFDF91CF9108951F9364
:1012B000CF93DF93182FEB0161E00E941B09209769
:1012C00011F460E004C0CF3FD10539F461E0812F13
:1012D000DF91CF911F910C94EB08E12FF0E0EE5CD1
:1012E000F04FE491E330F9F048F4E130B9F0E23046
:1012F000A1F584B5806284BDC8BD34C0E730E9F093
:10130000E83019F1E43049F58091800080628093E3
:101310008000D0938B00C0938A0024C084B580687D
:1013200084BDC7BD1FC0809180008068809380000D
:10133000D0938900C093880015C08091B000806868
:101340008093B000C093B3000DC08091B000806264
:101350008093B000C093B40005C0C038D1050CF034
:10136000B5CFAFCFDF91CF911F9108958E3008F0A8
:101370008E508770806480937C0080917A008064B6
:1013800080937A0080917A0086FDFCCF809178006E
:101390002091790090E0922B08953FB7F8948091C6
:1013A000AC029091AD02A091AE02B091AF0226B511
:1013B000A89B05C02F3F19F00196A11DB11D3FBF8D
:1013C000BA2FA92F982F8827820F911DA11DB11D1B
:1013D000BC01CD0142E0660F771F881F991F4A9517
:1013E000D1F708958F929F92AF92BF92CF92DF92E2
:1013F000EF92FF926B017C010E94CD094B015C01D1
:10140000C114D104E104F104F1F00E94CD09DC0122
:10141000CB0188199909AA09BB09883E9340A10507
:10142000B10570F321E0C21AD108E108F10888EE95
:10143000880E83E0981EA11CB11CC114D104E104E4
:10144000F10419F7DDCFFF90EF90DF90CF90BF90C0
:10145000AF909F908F9008951F920F920FB60F92AA
:1014600011242F933F938F939F93AF93BF938091BA
:10147000B5029091B602A091B702B091B802309136
:10148000AB0223E0230F2D3720F40196A11DB11DDF
:1014900005C026E8230F0296A11DB11D2093AB02C3
:1014A0008093B5029093B602A093B702B093B802AE
:1014B0008091AC029091AD02A091AE02B091AF02CA
:1014C0000196A11DB11D8093AC029093AD02A09333
:1014D000AE02B093AF02BF91AF919F918F913F91B8
:1014E0002F910F900FBE0F901F9018951F920F9283
:1014F0000FB60F9211242F936F937F938F939F9327
:101500006091B202662359F18091AA028F5F8093A5
:10151000AA029091B302891710F12091B00281E0E4
:1015200028272093B0021092AA028091B402882347
:1015300069F08091000193E4899F802D1124895BDB
:10154000809300010E94CB279093B102222329F0BF
:101550008091B1028093B40002C080E0FBCF9F91E4
:101560008F917F916F912F910F900FBE0F901F90D1
:101570001895FC0161110DC0178A158A14A213A2D7
:10158000108E1092B1021092B2021092B00210921C
:10159000B4000895EF92FF920F931F93CF93DF93C0
:1015A0001F92CDB7DEB77C018B01411105C060E011
:1015B00049830E94B90A498150E0FA01EE0FFF1FEA
:1015C000EE0DFF1D16870587DA011996AA0FBB1FBE
:1015D000AE0DBF1D1D921C92F701E40FF51F81E0B7
:1015E000818389E0868B118E138E158E0F90DF918B
:1015F000CF911F910F91FF90EF90089540E065EC1F
:101600007CE00C94CA0A40E06DEB7CE00C94CA0AC2
:1016100040E065EB7CE00C94CA0A4F925F926F92B7
:101620007F928F929F92AF92BF92CF92DF92EF9272
:10163000FF920F931F93CF93DF93F901C4903196DC
:101640005491EC0108A164350CF018C10C2C000C6D
:10165000DD08A62F062E000CBB0B7D01EC0CFD1C3B
:101660001E141F040CF00AC140330CF007C1A52E54
:10167000842E042E000C9908F401E50FF11D57FD8E
:10168000FA951E161F060CF0F9C02E5F3F4FE601BB
:101690002796D7FD279673E0D595C7957A95E1F7FC
:1016A00047FF0AC0A52EA40EC89DA001C99D500DDC
:1016B0001124241B350B40E0EA2D0A2C000CFF0BF3
:1016C000E40FF11D47FDFA95F1971CF050E3A52EAC
:1016D000A41A67FD60E0F701E535F10514F0E4E5D3
:1016E000F0E07E2FFC01D484D426862F062E000C39
:1016F000990BFC01EA1BFB0BDF017F01F7E0EF22F6
:10170000FF24E0E8F0E002C0F595E795EA94E2F7FF
:101710001E2FB7FD179653E0B595A7955A95E1F79B
:101720002A0F3B1FE42FE77051E001C0550FEA95E7
:10173000EAF7459545954595B4E54B02800D911D19
:10174000112487549D4FC12C0A2C000CBB089924EE
:1017500093942E015524EC2DF0E0EA15FB050CF0D6
:101760008DC0F90144910130E1F47C01A12F862E56
:10177000881AB82DBE0DB71708F077C0B42FBA235A
:1017800021F0E701B881B52BB883B0E0B595A795F6
:10179000109719F431964491A0E8DFEFED1AFD0A95
:1017A000E8CF01111FC0752E70947C01A12FF901A3
:1017B000862E881AB82DBE0DB71708F056C0B42F64
:1017C000BA2321F0E701B881B721B883B0E0B5951D
:1017D000A795109719F431964491A0E8DFEFED1A20
:1017E000FD0AE8CF033031F07C01A12FF901862EEC
:1017F000881A37C0752E7094862E7C01A12FF901AE
:101800008716D8F4B42FBA2359F0E701B881682CB1
:101810006D2460FE02C0B52B02C0B721E701B8837A
:10182000B0E0B595A795109719F431964491A0E8CA
:101830008394DFEFED1AFD0AE3CFD92416C0B42F4D
:10184000BA2321F0E701B881B527B883B0E0B59598
:10185000A795109719F431964491A0E8DFEFED1A9F
:10186000FD0AB82DBE0DB71750F3550F19F48C5A59
:101870009F4F51E0C394240D351D6DCFDF91CF9163
:101880001F910F91FF90EF90DF90CF90BF90AF909E
:101890009F908F907F906F905F904F900895FC0184
:1018A000643508F053C0403308F050C090A1742F45
:1018B000759575957595262F062E000C330B542FB4
:1018C00057709230A1F4F901E754FD4F84E5780296
:1018D000E00DF11D1124808190E0052E02C0959548
:1018E00087950A94E2F78095982F91700AC09330FB
:1018F00041F484858170462740954170841303C06C
:1019000014C0911112C084E57802200D311D1124FC
:10191000F901E754FD4F81E090E001C0880F5A952E
:10192000EAF780959081892310C084E57802200D24
:10193000311D1124F901E754FD4F81E090E001C011
:10194000880F5A95EAF79081892B80830895DF925A
:10195000EF92FF920F931F93CF93DF931F92CDB718
:10196000DEB78C01D62EF42EE12CE21654F46E2D47
:101970006D0D4F2DC80129830E944F0CE3942981DE
:10198000F4CF0F90DF91CF911F910F91FF90EF90C7
:10199000DF900895DF92EF92FF920F931F93CF9302
:1019A000DF937C01D62FD22EC42F002E000C110BFA
:1019B000040F111D47FD1A954C2F0C2E000C550BD2
:1019C0004017510744F42D2D4C2F6D2FC7010E9455
:1019D000A70CCF5FF1CFDF91CF911F910F91FF90B7
:1019E000EF90DF9008956F927F928F929F92AF92C7
:1019F000BF92CF92DF92EF92FF920F931F93CF93FC
:101A0000DF93EC0188A064350CF080C040330CF00B
:101A10007DC0EC81F0E031970E9FC0010F9F900DCB
:101A20001124860F911D67FD9A95181619060CF062
:101A30006DC0ED81E09FF0011124E40FF11D47FD21
:101A4000FA951E161F060CF061C0102FE42EF62E1C
:101A5000962EB62EC22ED12CEB2DEF190E2E000C89
:101A6000FF0B8C8190E0E817F9070CF04EC001974E
:101A7000E817F90779F0C89E9001C99E300DD89EED
:101A8000300D1124E20FF31F8E8D9F8DE80FF91F8B
:101A9000749001C0712C6E2CAE2C2A2D2E19022EA2
:101AA000000C330B8D8190E0281739075CF570FE30
:101AB00010C0113031F44A2D6B2DCE010E944F0C15
:101AC0001DC0012F212F462D692DCE010E94CA0C69
:101AD00015C089A198A1891789F088A3113031F424
:101AE0004A2D6B2DCE010E944F0C07C0012F212FD4
:101AF000462D692DCE010E94CA0C88A27694A3942B
:101B0000610ECBCFB394910EA7CF88A2DF91CF9176
:101B10001F910F91FF90EF90DF90CF90BF90AF900B
:101B20009F908F907F906F9008950F93CF93DF9346
:101B3000EC016A3019F42D8198851FC06D3019F1C0
:101B4000262F08854A8569850E94F30C28853C81EB
:101B50008985329F800D112489879F81992399F06F
:101B6000082E000C990B44E550E0239F40195109C1
:101B70001124481759073CF49D818A85299F800DBF
:101B800011248A87198681E090E0DF91CF910F912F
:101B90000895DF92EF92FF920F931F93CF93DF93FD
:101BA0001F92CDB7DEB78C01D62EF42EE12CE216B3
:101BB00054F44E2D4F0D6D2DC80129830E944F0CFA
:101BC000E3942981F4CF0F90DF91CF911F910F9172
:101BD000FF90EF90DF9008958F929F92AF92BF9207
:101BE000CF92DF92EF92FF920F931F93CF93DF93E9
:101BF00094E1C92E23E0B22E3EE4A32E47E2E42E68
:101C0000F12C5BEF952E66E0862E0E942B10882328
:101C1000E1F324E540E060E087E095E00E94A70C56
:101C200024E54FE260E087E095E00E94A70C20E306
:101C300040E060E087E095E00E94C90D20E340E0CD
:101C400063E587E095E00E94C90DC0921005B0924F
:101C5000110569EA7CE087E095E00E94AE0880917A
:101C60000C05880F809311050DE512E0C7E6D2E060
:101C700082E0D82E80921005F80180819181892B15
:101C800031F46DE287E095E00E94810805C0BE0155
:101C900087E095E00E948808F801419151918F01F9
:101CA00080910B054031F7E25F0724F0899D802D7C
:101CB00011240FC0483E23E0520724F08195880F7D
:101CC000880F07C04436510534F0982F990F890FBB
:101CD0008195825B0CC04A30510534F0F701E81B56
:101CE000F109CF01880F03C0FA2DF81B8F2F8093C5
:101CF000100580910C05D89E802D1124809311052C
:101D0000052E000C660B770B87E095E00E946715A7
:101D100061E372E087E095E00E94FF07D3942B9681
:101D200027E0D212A7CF8091CE04813081F48EEDCE
:101D300094E0DF91CF911F910F91FF90EF90DF9092
:101D4000CF90BF90AF909F908F900C94080B809194
:101D5000CF04813061F38091D004813009F055CFF8
:101D6000E6CF8F929F92AF92BF92CF92DF92EF9287
:101D7000FF92C090D304D090D404C094D094E12CAE
:101D8000F12C0E94CD094B015C010E94CD09A501F7
:101D9000940120953095409550956095709580956B
:101DA00090950E94BB279B01AC01C701B6010E9420
:101DB000BB274B015C018091BA049091BB046C017C
:101DC000E12CF12C0E94CD09C60ED71EE81EF91E8B
:101DD000C701B601680D791D8A1D9B1D611571052E
:101DE0008105910511F00E940F261092A20283E056
:101DF00090E090933E0280933D0210929E021092DA
:101E00009F021092A0021092A10281E090E09093B4
:101E10005B0280935A0282E090E0909345028093A7
:101E2000440210925C02E6E4F2E01192119282E028
:101E3000EA35F807D1F788E090E00E948F24FC0192
:101E4000118210821382128283E090E09583848352
:101E500016821782F0934702E093460281E090E0F9
:101E6000909343028093420280933C02109240027E
:101E70001092410280933F02FF90EF90DF90CF904D
:101E8000BF90AF909F908F900895CF92DF92EF9286
:101E9000FF920F931F93CF93DF938091290588239F
:101EA00009F4C6C081E080930F0510920E051092D0
:101EB0000D051092D1048093270580932805CEE963
:101EC000DCE01CE00E942B108823E1F3FE018491EA
:101ED000882319F000910C0501C000E02CE33BE0E1
:101EE00040E060E087E095E00E940D0B4CE0400F81
:101EF0002CEA3BE060E087E095E00E940D0B109239
:101F00001005109311056EE97CE087E095E00E94D2
:101F10008A0880910B05982F990F890F81958D5A0A
:101F20008093100580910C05982F990F890F81954A
:101F3000835D8093110580912A0584FF03C068E3C7
:101F40007BE002C064E37BE087E095E00E94AE089E
:101F500080910B05982F990F890F81958D5A809349
:101F60001005809111058F5F809311058091E30426
:101F7000882319F060E37BE002C06CE27BE087E03D
:101F800095E00E94AE0880910B05982F990F890F5C
:101F900081958D5A80931005809111058F5F8093F4
:101FA000110568E27BE087E095E00E94AE08809131
:101FB000CF048130B1F48091E3048F5F6091E40439
:101FC00087FD09C0082E000C990B70E06F5F7F4FF2
:101FD0000E94D727682F6093E3048EED94E00E945F
:101FE000FE0A8091CE048130A9F080912905482F06
:101FF00050E060E070E0C0902A05D0902B05E090A2
:102000002C05F0902D05C416D506E606F706D8F087
:102010008F3FC9F08FEF8093290560E08EED94E04B
:102020000E94B90A1092DF048EED94E00E94080B22
:102030001092D104DF91CF911F910F91FF90EF90FB
:10204000DF90CF9008958091D004813009F03ACF8D
:102050000E944C1637CF4F925F926F927F928F9271
:102060009F92AF92BF92CF92DF92EF92FF920F9327
:102070001F93CF93DF9300D000D01F92CDB7DEB770
:102080004091390550913A0560913B0570913C05AE
:102090002FB7F8948091B5029091B602A091B70243
:1020A000B091B8022FBF481B590B6A0B7B0B809174
:1020B000380590E0A0E0B0E00091340510913505BE
:1020C000209136053091370584179507A607B70785
:1020D00030F4011511052105310509F004C3012B68
:1020E000022B032B09F0FDC28091D00481508E3F5A
:1020F00018F58091CF04813021F58091E3048F5F42
:102100006091E40487FD09C0082E000C990B70E073
:102110006F5F7F4F0E94D727682F6093E3048CEA9C
:102120009EE090933E0580933D0588E480933F05B3
:102130008EED94E00E94FE0A8091D00481508E3F83
:1021400070F48091CE04813009F079C38FE99EE06C
:1021500090933E0580933D0588E480933F0580E0A1
:102160000E9485168091DF04882309F4ADC0809118
:10217000F3048111A9C08091EB049091EC04E091EB
:10218000F004F091F104EE0FFF1FE80FF91F4591E5
:1021900054914115510501F52091EF04222331F0AE
:1021A0001092F1041092F004FC0114C01092DF04AC
:1021B0008091DE04882341F080E00E948516E09142
:1021C000F004F091F1042FC060E08EED94E00E94E5
:1021D000B90A7AC0459154919A013695279536955A
:1021E000279540FF51C0CA01B6E096958795BA95EC
:1021F000E1F78F71952F96959695969590512F7042
:10220000223071F1F8F4211117C08B3008F08AE008
:102210008093F404E091F004F091F1043196F0938E
:10222000F104E093F004EE0FFF1F8091EB04909116
:10223000EC04E80FF91FCECF213061F760E00E9477
:10224000C616E8CF2330B1F0243021F72091E20404
:10225000829F802D11248093FB049093FC04DACF9D
:102260002091E204829F802D11248093F7049093A3
:10227000F804D0CF2091E204829F802D1124809316
:10228000F9049093FA04C6CF2F732093F20480913F
:10229000E204859F802D11248093F304109203059E
:1022A000109202051092010581E08093F50480935D
:1022B000B0021092F6048091F0049091F10401961E
:1022C0009093F1048093F0048091F504882309F43D
:1022D000F3C08091F304811106C060E08EED94E0BC
:1022E0000E94B90AE9C081508093F30480910305EC
:1022F000811148C020910105309102052F5F3F4FA9
:10230000C901880F991FE091FD04F091FE04E80FC8
:10231000F91F65917491862F877080930405AB0136
:1023200063E0569547956A95E1F7CA0196958795BA
:10233000972F96959695909305058F739091E2044B
:10234000899F802D11248093030541704093B4022E
:1023500030930205209301058091FF0490E0281737
:10236000390780F020910005222339F0821B910962
:10237000909302058093010505C060E08EED94E026
:102380000E94B90A809103058150809303058091D2
:10239000F60421E0280F2093F6044091F2043091D6
:1023A0000505340F8091EA04380F3093E004609102
:1023B000F904662371F070E0822F022E000C990B55
:1023C0000E94D7278091FA04869F300D1124309304
:1023D000E0048091E00490E0849664E270E00E9462
:1023E000D7278093E0043091F4043093E1046091A6
:1023F000F704662381F0062E000C770B822F022E45
:10240000000C990B0E94D7278091F804869F300D0D
:1024100011243093E1046091FB046623A1F0822F24
:10242000220F990B70E00E94D727CB0162E070E089
:102430000E94D7272091FC049091E104289F900DE1
:1024400011249093E1048091E1044F3341F08A30EC
:102450000CF089E087FD80E08093E10402C01092D7
:10246000E104F894E091E004F0E0E553F34FE491E7
:10247000E093B3023091E10420910605320390010C
:102480001124409104054203C001439F900D112483
:102490000090E30402C0880F991F0A94E2F797FFA7
:1024A00002C081589F4F880F892F881F990B8093F6
:1024B000B2028093B102789480913F05882309F499
:1024C00056C08C3020F49CE0E92EE81A01C0E12CC3
:1024D000FF24F394F0920F0510922705109228051F
:1024E00030910C051DE2D12ED31ADE0C03E0030F50
:1024F0002EE44D2D63E087E095E03D830E94CA0CF9
:102500003D810CEF030F33E0D30E202F41E06D2D02
:1025100080E50E945217202F42E06D2D83E00E943B
:102520005217F0922705F092280580910C0523E0C0
:10253000280F612F681B6E0D44E580E00E94011793
:1025400084E08093100580910C05E81A8E2D815D42
:102550008093110560913D0570913E0587E095E0FF
:102560000E948A0880913F05815080933F058091A9
:10257000D5049091D604892B09F48BC011E01093F7
:1025800027051092280590910B0585E5891B8093FE
:102590001005109211056091D204613009F45AC0FF
:1025A00030F08091D104653008F06CC067C060E005
:1025B0008EED94E00E94B90A1092DF0410930F058B
:1025C000EDE1FDE0E491EF5FE0930B05EEE1FDE06E
:1025D000E491EF5FE0930C058FE19DE09093260579
:1025E000809325051092D6041092D50410920D0503
:1025F00018EA0E942B108823E1F36FE07DE087E06A
:1026000095E00E948A084091D3045091D40460E080
:1026100070E02AE087E095E00E9438086AEF7CE0ED
:1026200087E095E00E948A08412F42954F7050E064
:1026300060E070E087E095E00E9467156FEE7CE057
:1026400087E095E00E948A088091CE04813009F0ED
:10265000FCC01FC080912A0590912B05A0912C05EC
:10266000B0912D058F709927AA27BB270897A10540
:10267000B10510F467E009C068E707C0882349F096
:102680006B5F03C0882329F06FE287E095E00E942A
:1026900081080E940C1680910D0581110EC088EFF3
:1026A00091E0E9EBF2E0DF019C011D922150304006
:1026B000E1F710921005109211050E94CD09609368
:1026C0003405709335058093360590933705209136
:1026D000300530913105621B730B70932F056093A9
:1026E0002E0580E0CCC02FB7F8948091B502909170
:1026F000B602A091B702B091B8022FBF2091380561
:10270000820F911DA11DB11D8093390590933A054B
:10271000A0933B05B0933C0580912A0590912B0531
:10272000A0912C05B0912D050196A11DB11D80939E
:102730002A0590932B05A0932C05B0932D0510929C
:1027400034051092350510923605109237050E9417
:10275000CD096093300570933105809332059093D5
:1027600033058091BA049091BB042FE0289F80012B
:10277000299F100D112485E10E94B609800F911F39
:1027800024E0969587952A95E1F79093BB04809372
:10279000BA042091B904222309F44BC06091BD040E
:1027A000262F30E040E050E029833A834B835C835E
:1027B000C090BE04D12CE12CF12C4091C104509169
:1027C000C2044A01A12CB12C2091BF043091C00455
:1027D0002901612C712C8217930728F09C0148175E
:1027E000590708F49A01C901A0E0B0E09C01AD01CD
:1027F000241935094609570969817A818B819C81A1
:102800006C197D098E099F090E94BB27A5019401BF
:1028100024193509460957090E942E26C20ED31ED7
:10282000E41EF51EC092BC046C2D70E085E00E9491
:1028300057090E9499150E94B51781E020C089327E
:1028400009F08DCC0E944C168ACC115009F0D1CEE3
:1028500060E070E085E00E94570983B7817F846063
:1028600083BF83B7816083BF83B7816083BF88954F
:1028700083B78E7F83BF83B78E7F83BFBACE0F901F
:102880000F900F900F900F90DF91CF911F910F91AC
:10289000FF90EF90DF90CF90BF90AF909F908F9080
:1028A0007F906F905F904F9008952F923F924F923C
:1028B0005F926F927F928F929F92AF92BF92CF92D0
:1028C000DF92EF92FF920F931F93CF93DF9300D08D
:1028D0001F92CDB7DEB7362E6A01FA0154903196B9
:1028E000E491A52CB12C7501F7E0EF0EF11C93E0FB
:1028F000F594E7949A95E1F720E030E8832E912C47
:102900000E2F10E08150580E822F022E000C990BD2
:102910008A159B050CF047C0922F27FF02C097E055
:10292000920F959595959595822F877887FF03C08F
:102930008150886F8F5F340102C0759467948A95C7
:10294000E2F7412C892F990F990BAC014E5F5F4F35
:102950005B834A83252C221A842D042C000C990BAE
:1029600080179107F4F48E9DF0018F9DF00D9E9DD0
:10297000F00D11248A819B81E80FF91FEC0DFD1DDC
:10298000E491F0E0E621F721EF2B49F0442D430DCF
:10299000622D87E095E029830E944F0C29814394A2
:1029A000DBCF2F5FB1CF0F900F900F90DF91CF91C2
:1029B0001F910F91FF90EF90DF90CF90BF90AF905D
:1029C0009F908F907F906F905F904F903F902F904F
:1029D0000895AF92BF92CF92DF92EF92FF920F9342
:1029E0001F93CF93DF93182F062FC1E0D3E08AEF18
:1029F000D82E9EEFE92E842F8470C82E842F8270EB
:102A0000B82E842F8870A82E4170F42E8C2F880F3A
:102A10008F5FE80ECC2081F04D2F400F6C2F610F9F
:102A200087E095E00E944F0C4C2F400F6D2F610FF7
:102A300087E095E00E944F0CBB2081F0402F4D1B9A
:102A40006C2F610F87E095E00E944F0C402F4C1BCC
:102A50006D2F610F87E095E00E944F0CAA2081F056
:102A60004C2F400F612F6D1B87E095E00E944F0CAB
:102A70004D2F400F612F6C1B87E095E00E944F0C9B
:102A8000FF2081F0402F4C1B612F6D1B87E095E0EC
:102A90000E944F0C402F4D1B612F6C1B87E095E06F
:102AA0000E944F0CCD1744F4E7FC04C0D150D394DE
:102AB000D394ED0CCF5FAACFDF91CF911F910F91EF
:102AC000FF90EF90DF90CF90BF90AF900895CF929E
:102AD000DF92EF92FF920F931F93CF93DF9377FFD5
:102AE0001DC06A017B01EC016DE20E9481088C012E
:102AF00044275527BA014C195D096E097F092AE060
:102B0000CE010E943808800F911FDF91CF911F9155
:102B10000F91FF90EF90DF90CF9008952AE0DF9122
:102B2000CF911F910F91FF90EF90DF90CF900C9479
:102B30003808CF92DF92EF92FF920F931F93CF93BB
:102B4000DF93C3ECD4E00AEC14E0FF24FA9497E09E
:102B5000E92EE00E62E088810E941B09288130E0A6
:102B6000F901EE5CF04F8491F901E25EF04FC49000
:102B7000F901E65FF04FD490DD2071F081110E94E1
:102B8000C208ED2DF0E0EE0FFF1FE050F14FA591D0
:102B9000B491EC91EC21B1F4F80180818F5F8083D6
:102BA00060E088810E941B0921960F5F1F4FE01291
:102BB000D1CFDF91CF911F910F91FF90EF90DF90D8
:102BC000CF900895F8018081882371F3F8018F3F39
:102BD00011F41082E5CFF082E3CFCF93C82FF894A1
:102BE00060E0809116050E94EB0880911705181689
:102BF0001CF460E00E94EB08CEBD00000DB407FE9F
:102C0000FDCF8EB58091170518161CF461E00E9467
:102C1000EB087894CF9108950F931F93CF938091F1
:102C200013058F5F8093130509EB12E0C0E08C2F32
:102C300080640E94ED1580E80E94ED1561E08091AE
:102C400016050E94EB088091170518161CF460E029
:102C50000E94EB0880E090E0F801E80FF91F208166
:102C60002EBD00000DB407FEFDCF2EB501968435B4
:102C7000910591F78091170518161CF461E00E94E8
:102C8000EB08CF5F0C5A1F4FC63089F680E4CF9116
:102C90001F910F910C94ED1588EF91E0E9EBF2E0B4
:102CA000DF019C011D9221503040E1F71092100588
:102CB0001092110568ED7EE087E095E00E948A0899
:102CC0000E940C168CB583608CBD8DB58E7F8DBD3A
:102CD00084E392E0EEEFFFE3099510920D0563EBBC
:102CE0007EE087E095E00E94AE080E940C160E94EC
:102CF00099158091CE04813039F062E370E080E074
:102D000090E00E94F209F3CF0895CF93DF93482F0C
:102D100050E0EA01C754DB4F9DA19923A1F19EA188
:102D2000911131C09EA5FA01EE0FFF1FE054FB4F39
:102D300035A126A1E32FF22FE90FF11DE90FF11DB7
:102D4000259134912F3F9FEF390711F41DA21BC02D
:102D500039AB440F551FFA01ED53FB4F3327220FB8
:102D6000331F05A0F6A1E02DE20FF31F65917491CA
:102D7000811105C040E08EED94E00E94CA0A2996B8
:102D80008DA18F5F8DA3DF91CF91089570E0DB015E
:102D9000AA0FBB1FA754BB4FD4962C91D497D5969E
:102DA0009C91D597E22FF92FE80FF11DE80FF11D47
:102DB000259134915F9696963C932E939597F901C1
:102DC000859194919091E204989F802D11246754ED
:102DD0007B4FFB01B19685A3F901A591B4914B2FCF
:102DE00050E0E82FF0E04E175F0720F4F90125913D
:102DF0003491832FFB01B296899F802D112485A3E6
:102E00000895DF92EF92FF920F931F93CF93DF937A
:102E1000C82FD62FE42E022F8AEFD82ED40E93E09F
:102E2000F92EFC0E2D2D462F6F2D87E095E00E9488
:102E3000A70C1D2F100F4FEF410F2D2D6F2D87E089
:102E400095E00E94A70C0650DD5F202F4D2F6C2FC0
:102E500087E095E00E94C90DCE0D6FEF6C0F202F1B
:102E60004D2F87E095E00E94C90D41E06D2F8F2D19
:102E70000E94E914C45042E06D2F8C2F0E94E91487
:102E8000145044E0612F8C2F0E94E91448E0612F18
:102E90008F2DDF91CF911F910F91FF90EF90DF90D9
:102EA0000C94E9149F92AF92BF92CF92DF92EF926F
:102EB000FF920F931F93CF93DF93F82EE62EB22E3F
:102EC00003E0020FD0E0C3E08AEFC82E1EEF842F8C
:102ED0008170982EAA24A394A20E4270D42EDF5F94
:102EE000802F8B19180F9920A1F02C2F220F2A0D5B
:102EF0004E2D4C1B6D2F6F0D87E095E00E94C90D84
:102F0000202F4E2D4D1B6C2F6F0D87E095E00E94FA
:102F1000C90DDD20A1F02C2F220F2A0D4E2D4C1BA8
:102F20006F2D6D1B87E095E00E94C90D202F4E2D5F
:102F30004D1B6F2D6C1B87E095E00E94C90DDC17BF
:102F400044F417FD04C0C150C394C3941C0D0E5F1C
:102F5000C6CFDF91CF911F910F91FF90EF90DF903F
:102F6000CF90BF90AF909F9008958091D50490919D
:102F7000D604892BB1F18091DD048F7169F584E16C
:102F80000E94B609BC01990F880B990B0E94C226BA
:102F900026EE3FE34EEC50E40E9426270E94912645
:102FA0009B017093D4046093D304672B91F084E069
:102FB0008093D204E5EDF4E080E041915191241733
:102FC000350718F48093D20408958F5F8430A9F7F1
:102FD00003C08FEF8093D2048091DD048F5F8093D4
:102FE000DD040895CF93DF93CDB7DEB72D970FB6ED
:102FF000F894DEBF0FBECDBF789484B5826084BDE7
:1030000084B5816084BD85B5826085BD85B58160EC
:1030100085BD80916E00816080936E00109281006A
:103020008091810082608093810080918100816025
:1030300080938100809180008160809380008091E6
:10304000B10084608093B1008091B0008160809372
:10305000B00080917A00846080937A0080917A0039
:10306000826080937A0080917A00816080937A00F8
:1030700080917A00806880937A001092C10082E388
:103080008093380581E090E0A0E0B0E080933405C3
:1030900090933505A0933605B09337058FEF809355
:1030A0002905E0E8F7E7259134912130304C09F00B
:1030B00049C0E6E9F7E7E491E0931205E7E9F7E7AD
:1030C000E491E093BD04E8E9F7E7E491E093BE04FE
:1030D000E9E9F7E7859194919093C0048093BF0448
:1030E000EBE9F7E7859194919093C2048093C10432
:1030F00088E08093E404EEE9F7E7E491E093E304E9
:10310000EFE9F7E7E491E0932905E0EAF7E7859135
:1031100094919093D6048093D504E2EAF7E78591E1
:1031200094919093D8048093D704E4EAF7E78591CB
:1031300094919093DA048093D904E6EAF7E78591B5
:1031400094912CC09CE3909312051092BD0480933F
:10315000BE0480E293E09093C0048093BF0484EDAA
:1031600093E09093C2048093C10488E08093E404C8
:103170008093E3048CEA9DE09093D6048093D50479
:103180008EED9DE09093D8048093D70484E79EE071
:103190009093DA048093D9048CE39FE09093DC044D
:1031A0008093DB0411E01093B9046FEF70E085E0C9
:1031B0000E94570988E08093C30489E08093C40487
:1031C00087E08093C50486E08093C60404E0009302
:1031D000C70482E08093C80481E18093C9040E94FF
:1031E00099158CE39FE09093D4048093D3040093CB
:1031F000D2041093DD048BE0809315058DE080935D
:10320000140580E1809316058EE0809318058FE009
:103210008093170510930F0510932705109228052A
:1032200010930E05EDE1FDE0E491EF5FE0930B05F7
:10323000EEE1FDE0E491EF5FE0930C058FE19DE0AE
:1032400090932605809325051FB7F8948091A302DB
:10325000811127C0E4E1FFE08491E8E2FFE094916E
:10326000E82FF0E0EE0FFF1FEC54FF4FA591B49153
:10327000EC91E92321F461E08AE00E94EB0861E02F
:103280008AE00E941B098CB580618CBD8CB580647E
:103290008CBD61E08DE00E941B0961E08BE00E9423
:1032A0001B098091A3028F5F8093A3021FBF8CB57F
:1032B0008F7D8CBD8CB58C7F81608CBD8DB5816020
:1032C0008DBD8CB58C608CBD61E0809115050E9430
:1032D0001B0961E0809114050E941B0961E0809147
:1032E00016050E941B098091180518161CF461E050
:1032F0000E941B098091170518161CF461E00E94BA
:103300001B0980911805181674F460E00E94EB0800
:103310006AE070E080E090E00E94F20961E0809154
:1033200018050E94EB0880911405082E000C990BDB
:10333000FC01E65FF04FE491F0E0EE0FFF1FE25476
:10334000FF4F2591349130931C0520931B05FC0100
:10335000E25EF04FE491E093220580911505082E7E
:10336000000C990BFC01E65FF04FE491F0E0EE0FEA
:10337000FF1FE254FF4F2591349130931A0520939B
:103380001905FC01E25EF04FE491E0932105809184
:103390001705082E000C990BFC01E65FF04FE49135
:1033A000F0E0EE0FFF1FE254FF4F25913491309370
:1033B0001E0520931D05FC01E25EF04FE491E093B1
:1033C000230580911605082E000C990BFC01E65F81
:1033D000F04FE491F0E0EE0FFF1FE254FF4F259114
:1033E00034913093200520931F05FC01E25EF04FDD
:1033F000E491E093240581E20E94ED1584E10E94AE
:10340000ED158091120587FF03C08FE780931205A9
:103410008091120580680E94ED1580E20E94ED15F2
:103420008CE00E94ED150E940C1681E08093E2046E
:1034300084E08093060580EB90E09093EE04809307
:10344000ED0460E080E00E94C61661E070E083E079
:103450000E9457098091B100887F81608093B100FC
:10346000F8941092800010928100109285001092C2
:10347000840088E191E09093890080938800809196
:1034800081008860809381008091810081608093B9
:10349000810080916F00826080936F0078940E9419
:1034A000B5178091CF04813019F41092E3040BC05A
:1034B0008091D2048823C9F340E068EC70E08EED7F
:1034C00094E00E94CA0A0E94450F0E94B10E77E65E
:1034D000C72E72E0D72EEDE5EE2EE2E0FE2E0AE0DA
:1034E00010E0A12CB12C48012AE0821A9108C501F4
:1034F000880D991D0E941826F601EA0DFB1D808398
:103500008FEFA81AB80A9AE0A916B10481F7C8018A
:103510000E941826A82EB12CD701AD92BC92C801EA
:1035200001960E941826482F50E0542F44274A0D38
:103530005B1D4F3FBFEF5B0711F440E050E0F70128
:10354000419351937F01052E000C660B770B40933E
:10355000A6025093A7026093A8027093A902045F89
:103560001F4FFBE0CF0ED11C0634110509F0B9CF77
:1035700010920D05DD24DA94412C10E020E3C22ED8
:1035800000E05524539433E0332E0E942B108823FF
:10359000E1F38091CE04813059F19091CF049130C4
:1035A00039F18091D004813011F40C947C244110C5
:1035B0002DC08091CD048F3F21F08370813009F4BC
:1035C000D3C68091CB048F3F21F08370813009F402
:1035D000D1C6043021F007FF03C003E001C000E0C2
:1035E00080910C0514E0180F809F101911242FC032
:1035F00010910C05110F110F11951250813011F41B
:103600000C9475248EED94E00E94030B8C2D0C2CF1
:10361000000C990B811B910917FD93950297ACF44F
:1036200031E0D31609F477C03D1534F0D1107EC0D7
:1036300010925C0281E077C042E0D41609F470C0B9
:1036400083E0D81273C084E06EC044244394E12E1A
:10365000012E000CFF08EC0CF11CC7FCFA94F7FEDD
:1036600003C09FEFE91AF90AF594E7942E2CCE2CAB
:1036700010921005E092110550920F0510920E0560
:1036800096ED692E90E0792EA12CB12C802E002E83
:10369000000C9908A814B90451F4309210058091D7
:1036A0000C05A22D089FA00D1124A0931105F30174
:1036B0006591749187E095E00E94AE08BFEFAB1A68
:1036C000BB0AE2E06E0E711CF4E0AF16B10411F714
:1036D000109227051092280580910C054E2D089F09
:1036E000400D1124415024E560E087E095E00E9400
:1036F000A70C509227055092280580910C0523E0D5
:10370000280F6E2D089F600D1124625044E580E063
:103710000E9401173ACFD0925C02D092A20208C058
:103720000E94EC0D05C08093A20202C00E94450FCA
:1037300013E0A4E08A2E912CB9E0AB2E08E1202EF4
:10374000312C0E942B10882309F402C68091A2021A
:103750009FEF980F933008F0B1C510932705109292
:103760002805D0905C0222E132E0D29E7001D39E07
:10377000F00C112497012E5F3A4F40E060E087E0A3
:1037800095E00E940D0B01E000932705109228059B
:10379000970122523F4F40E060E087E095E00E94B1
:1037A0000D0B40919E0250919F026091A00270917A
:1037B000A102D1102BC082E080930F051092270543
:1037C000009328054A3051056105710514F48CE415
:1037D00010C0443651056105710514F484E409C034
:1037E000483E33E053076105710514F48CE301C0D2
:1037F00084E38093100582E08093110587E095E0D3
:103800000E94671581E080930F0549C000930F0562
:1038100000932705109228054A305105610571056E
:1038200014F485E333C0443651056105710514F481
:1038300081E32CC0483E93E059076105710514F4FB
:103840008DE224C04031A7E25A076105710514F4E6
:1038500089E21CC0403AB6E85B07B1E06B0771052E
:1038600014F485E213C04034E2E45E07EFE06E0733
:10387000710514F481E20AC04038F6E95F07F8E9FF
:103880006F07710514F48DE101C089E18093100583
:1038900081E08093110587E095E00E946715109202
:1038A000270510922805E0903D02F0903E0222E0AC
:1038B000E216F10419F133E0E316F10431F041E0CE
:1038C000E416F10409F04CC032C080915C0290E033
:1038D0009C01F3E0220F331FFA95E1F72A5C364F83
:1038E00046E0489FF001499FF00D1124E55FFE4F2F
:1038F0004581648187E095E00E940D0B80915C0218
:1039000090E09C01E3E0220F331FEA95E1F72A5C87
:10391000364F46E0489FF001499FF00D1124E55FC6
:10392000FE4F4381628187E095E00E940D0B8091FC
:103930005C0290E09C0173E0220F331F7A95E1F75F
:103940002A5C364F46E0489FF001499FF00D112454
:10395000E55FFE4F4181608187E095E00E940D0B9D
:1039600081E0809327058093280582E0E816F10422
:1039700011F193E0E916F10429F0EA94EF2809F037
:103980004CC032C080915C0290E09C0163E0220F49
:10399000331F6A95E1F72A5D364F46E0489FF001F4
:1039A000499FF00D1124E55FFE4F4581648187E05A
:1039B00095E00E940D0B80915C0290E09C0153E029
:1039C000220F331F5A95E1F72A5D364F46E0489F94
:1039D000F001499FF00D1124E55FFE4F43816281A4
:1039E00087E095E00E940D0B80915C0290E09C01C5
:1039F00043E0220F331F4A95E1F72A5D364F46E038
:103A0000489FF001499FF00D1124E55FFE4F418171
:103A1000608187E095E00E940D0B80915C0290E050
:103A2000FC01EE0FFF1FE95EFE4F0081D180109276
:103A300027051092280522E3289F7001299FF00C8A
:103A400011249701225F354F4D2D602F87E095E0BF
:103A50000E940D0B109327051093280597012655FA
:103A6000364F4D2D602F87E095E00E940D0B81E0D1
:103A7000809327051092280597012A5B364F4D2D1C
:103A8000602F87E095E00E940D0B8091A2028130AB
:103A900061F0B6E4EB2EB2E0FB2E07E0D02E0AE098
:103AA0008BE0C82E96E0B92E4AC28091CA048130BC
:103AB00061F480915A0290915B02181619062CF459
:103AC000019790935B0280935A028091CE048130DB
:103AD00061F480915A0290915B02181619062CF439
:103AE000019790935B0280935A028091CC048130BD
:103AF00061F480915A0290915B02823091052CF41E
:103B0000019690935B0280935A028091CF0481309A
:103B100061F480915A0290915B02823091052CF4FD
:103B2000019690935B0280935A028091A402909137
:103B3000A50201979093A5028093A4021816190676
:103B40000CF496C1F6E4CF2EF2E0DF2E760101E010
:103B5000A2E0BA2ED701ED91FC911197309709F4AC
:103B600090C08781882361F01D921C92809142024F
:103B7000909143020197909343028093420281C047
:103B8000848195811816190624F4019795838483FE
:103B900005C0828193810196938382832081318144
:103BA000828193812115310521F48130910591F4B1
:103BB0000DC02130310521F48230910559F406C041
:103BC0002230310539F48330910521F4D901A15C0B
:103BD000BD4F1C928430910531F08A30910519F067
:103BE0008031910569F526812223B1F0168240913A
:103BF0009E0250919F026091A0027091A1024F5FBE
:103C00005F4F6F4F7F4F40939E0250939F02609390
:103C1000A0027093A10214C007838EED94E00E946D
:103C2000030B80913D0290913E02019790933E02DA
:103C300080933D021816190624F1B092A20221C009
:103C40004497FCF0F701118210828091420290911A
:103C500043020197909343028093420280919E0217
:103C600090919F02A091A002B091A1020A96A11D7D
:103C7000B11D80939E0290939F02A093A002B093E7
:103C8000A102F2E0EF0EF11C2AE5E21622E0F206B4
:103C900009F060CF8EED94E00E94FE0A809144020C
:103CA00090914502181619062CF40197909345023D
:103CB0008093440240909E0250909F026090A00228
:103CC0007090A1023BE8431632E053066104710490
:103CD0007CF4C301B2012EEC3FEF4FEF5FEF0E9487
:103CE0002E262F5E3F4F3093A5022093A40204C0DE
:103CF0009092A5028092A402809144029091450284
:103D0000181619060CF4B4C0809142029091430237
:103D1000892BD9F04FEE441642E054066104710439
:103D20007CF4C301B2012AE63FEF4FEF5FEF0E9440
:103D30002E26CA01B901665F7F4F8F4F9F4F09C082
:103D400065E070E080E090E004C062E070E080E058
:103D500090E00E94140861118BC0E12CF12CD60177
:103D60008D919D916D01892B09F088C080919E02F3
:103D700090919F02A091A002B091A1028D32E1E04A
:103D80009E07A105B1055CF465E070E080E090E07D
:103D90000E941408BB24B394B60E00E029C08935F4
:103DA0009240A105B10584F462E070E080E090E00B
:103DB0000E941408062F64E070E080E090E00E940A
:103DC0001408E2E0BE2E0FC063E070E080E090E0F7
:103DD0000E941408062F63E070E080E090E00E94EB
:103DE000140873E0B72EB60E03C0002349F001504B
:103DF000C02ED12CF601E15CFD4F80818111F5CF01
:103E000088E090E00E948F24FC016B2D70E0D1824D
:103E1000C082C114D10419F4138212820AC021E0B5
:103E2000C216D10421F032E0C316D10411F4D382BA
:103E3000C2827583648316821782D701AA0FBB1FC3
:103E4000AA5BBD4FED93FC93809142029091430297
:103E50000196909343028093420280913C028F5FCF
:103E600080933C0282E090E090934502809344026C
:103E700056E4E52E52E0F52E01E01AC09FEFE91A54
:103E8000F90AAAE0EA16F10409F069CFF1CF8281BC
:103E9000938183309105A1F480915A0290915B0245
:103EA000892B01F1BAE5EB16B2E0FB0609F4F1CD7E
:103EB000D701ED91FD917D0186818111F3CFE7CF8F
:103EC0008930910539F480915A0290915B020197F3
:103ED00049F708C00F9731F780915A0290915B0221
:103EE000029701F706838EED94E00E94080BDACF6B
:103EF00017968C911797E0915C02882399F112969E
:103F00008D919C911397BE9ED0011124A756BE4F50
:103F10008B309105DCF014966C91149715964C91AA
:103F2000DE9E900111242E53354F87E095E00E94CC
:103F30000D0BAAE5EA16A2E0FA0609F4A8C0F701FB
:103F4000A191B1917F01109799F6F3CF059734F0C5
:103F500012966C91129713964C91E2CF6C91119638
:103F60004C91DECF14968D919C91159718161906D9
:103F7000BCF4F0E0CE9E9001CF9E300D112424556C
:103F8000354FCF01880F991FE80FF91FED56FE4FEF
:103F90009C9182814181989F400D11246081C5CF01
:103FA00012968D919C9113979C01220F331F820FC3
:103FB000931FAE2FB0E09C014CE34E9F200D311DAE
:103FC0001124F901E55EFE4F80816181E2814E2E70
:103FD000512C9AE04916510408F0ABCFF201EC5C89
:103FE000FF4F0C94EB27CA9E9001CB9E300D1124FD
:103FF0002455354F1FC00A9F90010B9F300D11248F
:104000002856354F17C00A9F90010B9F300D112481
:104010002C57354F0FC0DA9E9001DB9E300D1124D6
:104020002E53354F07C0AA9E9001AB9E300D112430
:104030002E58354F462F682F78CFCA9EA001CB9EB1
:10404000500D11244455554F1FC00A9FA0010B9FCE
:10405000500D11244856554F17C00A9FA0010B9FC1
:10406000500D11244C57554F0FC0DA9EA001DB9E16
:10407000500D11244E53554F07C0AA9EA001AB9E70
:10408000500D11244E58554F0E94551452CFE091B7
:104090005C02F0E080915A0290915B0224E1F22EE2
:1040A000FE9E9001FF9E300D11242053354FAF012D
:1040B000440F551FE40FF51FE80FF91FEE0FFF1F08
:1040C000EB55FE4F4181608187E095E00E940D0B2A
:1040D0008091A202833009F07AC0109227051092D5
:1040E000280520910B05822F880F280F220F0091A1
:1040F0000C0543E16CE187E095E00E94CA0CEE24D8
:10410000E394E0922705109228058DE18093100535
:10411000F09211056DEB71E087E095E00E94880850
:10412000109227051092280500910C0580910B052F
:104130002BE0829F202D1124A101401B5109440F27
:10414000415067E287E095E00E94CA0CE0922705A3
:104150001092280588E28093100580910C05F101EA
:10416000E81BF109CF01880F8093110564EC71E021
:1041700087E095E00E948808109227051092280594
:1041800000910C0580910B0527E0829F202D1124C2
:104190004FE2401B67E387E095E00E94CA0CE09283
:1041A00027051092280588E38093100590910C054F
:1041B00080E3891B8093110560ED71E087E095E055
:1041C0000E9488088091CE04813009F4D9C0809182
:1041D000A202823009F0B2C0109227051092280581
:1041E00007E025E244E168E187E095E00E94CA0C1F
:1041F000FF24F394F09227051092280589E180931B
:10420000100585E18093110568ED71E087E095E088
:104210000E94880840919E0250919F026091A002E6
:104220007091A1028091A6029091A702A091A8028C
:10423000B091A90284179507A607B707DCF410927E
:1042400027051092280529E34DE16EE087E095E00F
:104250000E94CA0CF0922705109228058FE08093E7
:1042600010058EE18093110562EE71E087E095E024
:104270000E948808109227051092280500910C05CD
:1042800080910B0527E0829F202D11244FE2401BD7
:1042900067E387E095E00E94CA0C81E080932705E0
:1042A0001092280588E38093100590910C0580E317
:1042B000891B8093110561EF71E03CC08430F1F5FA
:1042C00088E18093100586E08093110569EF71E025
:1042D00087E095E00E9488088CE1809310058EE0CD
:1042E0008093110564E072E087E095E00E94880801
:1042F00082E0809310058AE1809311056DE072E001
:1043000087E095E00E94880882E280931005809300
:10431000110563E272E087E095E00E94880888E377
:104320008093100590910C0580E3891B8093110503
:1043300069E272E087E095E00E9488088091D004ED
:10434000813031F48091A2028130E9F41093A2020D
:104350008091A2028111F5C980E090E0892B09F4D7
:1043600007C90E94000004C90F5F8EED94E00E940F
:10437000FE0A27C901508EED94E00E94FE0A29C969
:104380008093A20224CF843039F48EED94E00E9411
:10439000080B1092A202E0CF40919E0250919F0222
:1043A0006091A0027091A1028091A6029091A70253
:1043B000A091A802B091A90284179507A607B70794
:1043C0000CF042C2E0E8F7E7859194918130904C7F
:1043D000A9F010920D0510929D0270E3C72EE4E53E
:1043E000DE2EF2E0FF2EE12C10E0AAEF7A2EBEE2E4
:1043F0003B2E0FE2202E80E3682E66C0EBE8F7E745
:104400008491DF01A85FB4478C933196E53927E7A3
:10441000F207B1F7DECF8091CD048F3F09F059C08C
:104420008091CB048F3F09F059C08091CC048F3F1D
:1044300009F059C08091CA048F3F09F059C030E19A
:10444000E3125BC0E12C48E0F4125CC0F12C9091C7
:104450000C0580910B0580958E9D802D1124895D22
:10446000AD2CDD0CBB08A80EB11C87FDBA94B7FEBD
:1044700003C08FEFA81AB80AB594A7945A2CDA2C67
:1044800084E1891B90959F9D800D11248C2CCC0C70
:104490009908880E911C87FD9A9497FE03C09FEFA0
:1044A000891A990A95948794482CC82C8091CE0437
:1044B000813009F044C01A30D4F52E2DA0E1FA9EC7
:1044C000200D1124211123C00E942B108823E1F319
:1044D000A2CF8370813009F0A3CFBBC1837081303C
:1044E00009F0A3CFBCC18370813009F0A3CFBDC157
:1044F0008370813009F0A3CFBEC1E7FEA4CF6FE087
:10450000E62EA1CFF7FEA3CF57E0F52EA0CF2A309D
:10451000D9F22D30C9F2812F012E000C990BFC012C
:10452000ED56FD4F2083FC01EC56FD4F10821F5FBE
:104530008EED94E00E94080B1C300CF01BE0809183
:10454000CF04813071F411508EED94E00E94030B82
:1045500017FD97C1E12F012E000CFF0BED56FD4F0B
:1045600010828091D004813051F48DC18091CF04AC
:10457000813009F08CC18EED94E00E94030B70E055
:1045800050E030E0232F270F80910C05452F589FD6
:10459000400D1124440D80910B05632F389F600D51
:1045A0001124650D01E087E095E03C875D877B87FE
:1045B0000E94F30C3C853F5F5D857B85303111F7B0
:1045C0005F5F705F5830E9F680910B05BA2D879DCB
:1045D000B00D11248B2F82508093100580910C0513
:1045E0008F5F880D8093110564E07BE087E095E0A4
:1045F0000E948A0880910B05EA2D879DE00D112409
:104600008E2F82508093100580910C05880F8E5F4D
:10461000880D809311056EEF7AE087E095E00E94A7
:104620008A0880910B05FA2D879DF00D11248F2F9C
:1046300082508093100580910C0590E00196982F90
:10464000990F890F880D8093110568EF7AE087E054
:1046500095E00E948A081092270510922805809103
:104660000C054F2DF89E400D11244250480D8091AD
:104670000B056E2DE89E600D112461506A0D27E038
:1046800087E095E00E94A70CBB24B394B092270565
:10469000B092280530910C0540910B05E42FF0E015
:1046A00025E0230F4E5FCF01019762E070E00E948A
:1046B000D727480F6F2DF39E600D11246350680DAE
:1046C0008E2DEE9E800D112482508A0D0E940117BE
:1046D00080910C05432D481B24E560E087E095E0C0
:1046E0000E94A70C109227051092280580910C05B6
:1046F00001E0080F422D481B24E560E087E095E0CB
:104700000E94CA0C1092100580910C05262D281BC2
:1047100020931105B0922705B092280563E972E055
:1047200087E095E00E94880880912A0590912B05EA
:10473000A0912C05B0912D0587709927AA27BB273A
:104740000497A105B10508F0BFCE1A300CF0BCCE1D
:1047500080910C05462D481B60910B05169F602D1E
:10476000112401E02FE587E095E00E94F30CACCE28
:104770005801BBE0AB1AB108B501CE0101960E9409
:104780000A28B801C5010E940A28BE016F5F7F4F49
:10479000C8010E940A28F70191828082D382C282D6
:1047A000C601DD0CAA0BBB0B8093A6029093A70257
:1047B000A093A802B093A9028501F2E007361F0773
:1047C00059F0D701DE90CE907D0112968D909C908D
:1047D0001397C814D90464F297E6A92E92E0B92E73
:1047E0002DE5C22E22E0D22E0AE010E0E12CF12CC1
:1047F0004801FAE08F1A9108F501EE0DFF1D608166
:10480000C701880D991D0E9420262FEFE21AF20A97
:104810003AE0E316F10481F7D6016C91C8010E94D9
:104820002026F6016181B2E0CB0ED11CC8010196B1
:104830000E942026045F1F4FEBE0AE0EB11C063431
:104840001105A1F60E94EC0D0E94450F0E94B10EC9
:1048500083CDF3948EED94E00E94FE0AE1CDFA94AC
:104860008EED94E00E94FE0AE0CDE3948EED94E09C
:104870000E94FE0ADFCDEA948EED94E00E94FE0ACB
:10488000DECD10E06ECE8EED94E00E94080B0E940B
:104890002B108823E1F36BE17BE087E095E00E9439
:1048A000AE0863E972E087E095E00E9488086AE05C
:1048B0007BE087E095E00E94AE088091CE048130D5
:1048C00009F054CE8EED94E00E94080B80919E0278
:1048D00090919F02909366028093650285E6E82E90
:1048E00082E0F82E03E912E06CCF8EED94E00E9496
:1048F000080BD02E0C94061B10910C05110F110FF4
:10490000119512500C94021B10920A051092090581
:1049100085EB91E090930805809307050895CF9368
:10492000DF938230910510F482E090E0E09142053F
:10493000F091430520E030E0C0E0D0E0309711F185
:104940004081518148175907C0F04817590761F451
:1049500082819381209719F09B838A832BC0909347
:1049600043058093420526C02115310519F04217F1
:10497000530718F49A01BE01DF01EF010280F381B1
:10498000E02DDCCF2115310509F1281B390B24302E
:10499000310590F412968D919C91139761157105D4
:1049A00021F0FB019383828304C09093430580939D
:1049B0004205FD01329644C0FD01E20FF31F8193D1
:1049C0009193225031092D933C933AC02091400598
:1049D00030914105232B41F42091030130910401D2
:1049E000309341052093400520910101309102014F
:1049F0002115310541F42DB73EB740910501509185
:104A00000601241B350BE0914005F0914105E217AA
:104A1000F307A0F42E1B3F0B2817390778F0AC01E1
:104A20004E5F5F4F2417350748F04E0F5F1F5093BE
:104A30004105409340058193919302C0E0E0F0E08E
:104A4000CF01DF91CF9108950F931F93CF93DF9301
:104A5000009709F48CC0FC013297138212820091F6
:104A60004205109143050115110581F42081318122
:104A7000820F931F20914005309141052817390777
:104A800079F5F0934105E093400571C0D80140E00D
:104A900050E0AE17BF0750F412962D913C9113973A
:104AA000AD012115310509F1D901F3CF9D01DA01DD
:104AB0003383228360817181860F971F821793074A
:104AC00069F4EC0128813981260F371F2E5F3F4F93
:104AD000318320838A819B8193838283452B29F4B0
:104AE000F0934305E093420542C01396FC93EE9386
:104AF0001297ED01499159919E01240F351FE2173C
:104B0000F30771F480819181840F951F02961196AD
:104B10009C938E938281938113969C938E9312978C
:104B2000E0E0F0E0D80112968D919C9113970097E8
:104B300019F0F8018C01F6CF8D919C9198012E5FB0
:104B40003F4F820F931F2091400530914105281758
:104B5000390769F4309729F4109243051092420501
:104B600002C0138212821093410500934005DF9129
:104B7000CF911F910F9108958F929F92AF92BF9204
:104B8000CF92DF92EF92FF92CF93DF93EC01688197
:104B900079818A819B81611571058105910521F4D7
:104BA00064E279ED8BE597E02DE133EF41E050E0F1
:104BB0000E942E2649015A019B01AC01A7EAB1E4EB
:104BC0000E944D266B017C01ACEEB4EFA50194016F
:104BD0000E945B26DC01CB018C0D9D1DAE1DBF1D0F
:104BE000B7FF03C00197A109B04888839983AA83BE
:104BF000BB83BC01CD019F77DF91CF91FF90EF90F8
:104C0000DF90CF90BF90AF909F908F9008950E94BB
:104C1000BC25089587E091E00E94BC25089560932B
:104C20000701709308018093090190930A01089588
:104C3000F999FECF92BD81BDF89A992780B5089564
:104C4000262FF999FECF1FBA92BD81BD20BD0FB6A8
:104C5000F894FA9AF99A0FBE01960895052E97FBDB
:104C60001EF400940E94452657FD07D00E9460263E
:104C700007FC03D04EF40C94452650954095309592
:104C800021953F4F4F4F5F4F0895909580957095B8
:104C900061957F4F8F4F9F4F08950E948226A59F59
:104CA000900DB49F900DA49F800D911D1124089527
:104CB000B7FF0C944D260E944D26821B930B08953E
:104CC000A1E21A2EAA1BBB1BFD010DC0AA1FBB1F10
:104CD000EE1FFF1FA217B307E407F50720F0A21B82
:104CE000B30BE40BF50B661F771F881F991F1A94EF
:104CF00069F760957095809590959B01AC01BD0119
:104D0000CF010895A29FB001B39FC001A39F700D72
:104D1000811D1124911DB29F700D811D1124911DC3
:104D200008950E94052788F09F5798F0B92F99277A
:104D3000B751B0F0E1F0660F771F881F991F1AF086
:104D4000BA95C9F714C0B13091F00E941F27B1E0A5
:104D500008950C941F27672F782F8827B85F39F0A4
:104D6000B93FCCF3869577956795B395D9F73EF41F
:104D700090958095709561957F4F8F4F9F4F0895C7
:104D8000E89409C097FB3EF49095809570956195E5
:104D90007F4F8F4F9F4F9923A9F0F92F96E9BB279B
:104DA0009395F695879577956795B795F111F8CF17
:104DB000FAF4BB0F11F460FF1BC06F5F7F4F8F4F82
:104DC0009F4F16C0882311F096E911C0772321F078
:104DD0009EE8872F762F05C0662371F096E8862F10
:104DE00070E060E02AF09A95660F771F881FDAF767
:104DF000880F9695879597F9089557FD9058440F19
:104E0000551F59F05F3F71F04795880F97FB991F29
:104E100061F09F3F79F087950895121613061406E6
:104E2000551FF2CF4695F1DF08C016161706180673
:104E3000991FF1CF86957105610508940895E8944E
:104E4000BB2766277727CB0197F908950E9439275A
:104E50000C94AA270E949C2738F00E94A32720F0D8
:104E6000952311F00C9493270C94992711240C94FA
:104E700020270E94FD2670F3959FC1F3950F50E007
:104E8000551F629FF001729FBB27F00DB11D639FFC
:104E9000AA27F00DB11DAA1F649F6627B00DA11DA2
:104EA000661F829F2227B00DA11D621F739FB00D48
:104EB000A11D621F839FA00D611D221F749F3327B8
:104EC000A00D611D231F849F600D211D822F762F51
:104ED0006A2F11249F5750409AF0F1F088234AF02E
:104EE000EE0FFF1FBB1F661F771F881F915050409A
:104EF000A9F79E3F510580F00C9493270C9420272E
:104F00005F3FE4F3983ED4F3869577956795B79520
:104F1000F795E7959F5FC1F7FE2B880F911D96953A
:104F2000879597F9089597F99F6780E870E060E0AA
:104F300008959FEF80EC089500240A941616170632
:104F400018060906089500240A941216130614067A
:104F500005060895092E0394000C11F4882352F0DD
:104F6000BB0F40F4BF2B11F460FF04C06F5F7F4F95
:104F70008F4F9F4F0895DB018F939F930E944D2683
:104F8000BF91AF91A29F800D911DA39F900DB29FE5
:104F9000900D11240895991B79E004C0991F96176C
:104FA00008F0961B881F7A95C9F78095089597FB9E
:104FB000072E16F4009407D077FD09D00E94F12740
:104FC00007FC05D03EF4909581959F4F089570950C
:104FD00061957F4F0895EE0FFF1F0590F491E02D2E
:104FE0000994AA1BBB1B51E107C0AA1FBB1FA61730
:104FF000B70710F0A61BB70B881F991F5A95A9F782
:1050000080959095BC01CD01089581E090E0F894E1
:105010000C941128FB01DC0101900D920020E1F7B6
:065020000895F894FFCF93
:105026000100004405800001000000421148104EB6
:105036000F3C0043004A00421E431C0808010A13A5
:1050460002081D060D25040E1A07110E0618050284
:105056001B0F06201A021E2509231C062813022DE3
:105066000C01301406321D07372504391D013E197F
:1050760002431801481B040D06000F0F001118000B
:10508600131E04151501170A011C0601220B002424
:105096001400251E042815012A0E012E0B01330EBD
:1050A60000361700371E043B15014010014513005A
:1050B60047190405040B00000C0B2920293529107B
:1050C6002B232B352B07251C2531250E202120339C
:1050D6002000000000950DCE07FA07F9075041554C
:1050E60053454400153A20436F6E74696E7565002A
:1050F600173A20517569740047414D45204F564572
:1051060052004E4557204849474853434F52452180
:1051160000173A204D656E7500446576656C6F70B4
:1051260065723A004C414442536F6674004177659C
:10513600736F6D65206E657720677261706869634D
:10514600733A00657269636F00173A204261636BB8
:0C515600000D0A004C4F4144455200007F
:00000001FF
