:100000000C94A6040C94CE040C94CE040C94CE0450
:100010000C94CE040C94CE040C94CE040C94CE0418
:100020000C94CE040C94CE040C94CE040C943E0795
:100030000C94CE040C94CE040C94CE040C94CE04F8
:100040000C94F4060C94CE040C94CE040C94CE04C0
:100050000C94CE040C94CE040C94CE040C94CE04D8
:100060000C94CE040C94CE040101FF030101F703AC
:100070006C00680000000000240027002A00000037
:100080000000250028002B000500893008023802F6
:100090004978681400000807E0E0E040704070080C
:1000A00008040E1F6E1428C840080870707028F0ED
:1000B00020304808097070702070A8202050080572
:1000C00020977F9708050038016801000005006847
:1000D000013801000018100060000090001FF800B7
:1000E0002004004F9E004F9E004F9F0040008080E4
:1000F000C04081E0C081E0C080C040980C40E7F380
:10010000C0241200180C0008063030FCFC303010FF
:1001100009E01CE01CE01C400860185FE840084053
:1001200008A0145830020000000000000000000089
:1001300002000000000000000000000200000000BB
:1001400000000000000002000000000000000000AD
:10015000000200000000000000000000020000009B
:1001600000000000000000FF800000000000000010
:10017000000000800000000000000000000080007F
:1001800000000000000000000080000000000000EF
:10019000000000FF800000000000000000000200DE
:1001A000000000000000000000020000000000004D
:1001B000000000000200000000000000000000023B
:1001C000000000000000000000000200000000002D
:1001D000000000000002000000000000000000001D
:1001E0000200000000000000000000FF800000008E
:1001F000000000000000008000000000000000007F
:1002000000008000000000000000000000800000EE
:1002100000000000000000FF80000000000000005F
:1002200000000200000000000000000000020000CA
:1002300000000000000000000200000000000000BC
:1002400000000002000000000000000000000200AA
:10025000000000000000000000020000000000009C
:10026000000000000200000000000000000000FF8D
:10027000800000000000000000000080000000007E
:1002800000000000000080000000000000000000EE
:100290000080000000000000000000FF800000005F
:1002A000000000000000020000000000000000004C
:1002B000000200000000000000000000020000003A
:1002C000000000000000000200000000000000002C
:1002D000000002000000000000000000000200001A
:1002E000000000000000000003FFFFFFFFFFFFFF12
:1002F000FFFFF0040800020000400010000008109A
:10030000000200004000080000101000040000205F
:10031000000800002020000400002000040000402D
:1003200020000400002000040000804000080000BD
:1003300010000200005830004021000000000000C2
:10034000000000A0420000000000000000009042F9
:100350000000000000000000013002020000000068
:1003600000000000290002000000000000000088DA
:10037000020400000000000000000A040400000065
:100380000000000000120400000000000000000057
:1003900062080800000000000000000000080000E3
:1003A0000000000000000020080000000000000025
:1003B000004040100000000000000000A08000008D
:1003C0000000000000000128802000000000000064
:1003D0000001140020000000000000000004804024
:1003E0000000003EE0000000448040000000C1101A
:1003F0000000004803000000070088000000101CF7
:100400000000000880880000001040000000080480
:1004100004000000208000000008080400000041E3
:1004200000000000080804000000010000000004B3
:10043000080800000010000000000B080800000081
:10044000A8000000001044940000014800000000D3
:1004500010804200000008000000001080420000F0
:10046000000800000000084082000000900000002A
:10047000000808020000012000000000044C840075
:100480000000200000000003210800000020000000
:10049000000000923000000040000000000073C027
:1004A000000000000000000000120000000000003A
:1004B0000000000012000000000000000000001218
:1004C000000000000000000000001200000000001A
:1004D00000000000001100000000020100400100C7
:1004E00011000000000A01805001401100000000CE
:1004F0002C0300200240110000000000000000005A
:100500000000000000000800020000400010000091
:10051000001000020000400008000000100004006D
:10052000002000080000002000040000200004005B
:10053000000020000400002000040000004000082B
:100540000000100002000017534400161378001634
:100550001314001510200015201000540A03E18127
:10056000867F3E186D830F0F0E0183866033186DF2
:10057000C3198F1803C38E6033186DE330CF18038F
:10058000C39E603630CDE360CF3006C79E7E3E30DE
:10059000CDB360CF300CC6F6603330D9B660CF3300
:1005A000CFCCF66061B0DB1E60CF30D86CE6C061A6
:1005B000B0DB1E618F19986CC6C063B19B0E330F00
:1005C0000FB078C6FF7E1F1B061E0F401EE0000006
:1005D000078E78E060E000000FEC0DF9F0E000001D
:1005E0001FF80F1F98FC00001818060E0CE3C0003F
:1005F000781004040DE23800EC07038007E209815B
:10060000801FCFC1C1E20F110018D8E7F0E20EC180
:100610000630603E78E20FC18F30403C38E20F80F8
:10062000D9E000181CE20F801080300027FA0F007C
:100630000000700001FE0F000070700000FFCE008F
:1006400060F0780000FFFA0040E0618001FFF801EF
:100650004078E7E001FFF803C00C8FF00BFFF903CF
:10066000C0049FF80EFFFA87C807FEF81EFFFF8739
:100670008827FC7823FFFFCB3803EC7001E7FFF8F5
:10068000D8032E6007E3FFF8C20126F47EE0FFFFE7
:1006900060833073E0E078FFFF861E0000E0000713
:1006A000FF1C1C0000E00001F81E0E0000E000002E
:1006B000000F060000E00000000000000046697224
:1006C000654275696E6F2100450068010000F6E81B
:1006D000DBCFC3B8AEA49B928A827B746E68625CE7
:1006E00057524E4945413E3A3734312E2C29272561
:1006F00023210A0A153A49676E6F7265006D560A22
:100700000A504C45415345205455524E204F4646C1
:1007100020004C4F5720424154544552592120004B
:1007200003053F213F1208120A100A0E1C0E0C1E70
:100730000C141A14161F161E131E1E1B1E1E1F1E1F
:100740003F213F3A2F3A173D173F213F181F020420
:100750000A041F0E04040E1F0A1F0A0E0E1F0411A6
:100760000E2E252E2F2A2E262929021F02081F08A9
:10077000150E04040E150E15151B151B0406040496
:100780000C040000000017000300031F0A1F1637A7
:100790001A1904130A153A000300000E11110E0075
:1007A0000A040A040E0400300004040400100018B7
:1007B00004031F111F121F101D151711151F070409
:1007C0001F17151D1F151D01011F1F151F17151FB1
:1007D000000A00003200040A110A0A0A110A040180
:1007E00015020E11171E051E1F150A0E110A1F11E4
:1007F0000E1F15111F05010E111D1F041F111F11C2
:1008000008100F1F041B1F10101F061F1E040F0EC1
:10081000110E1F09060E112E1F051A121509011FB0
:10082000011F101F0F180F1F0C1F1B041B031C039D
:10083000191513001F11030418111F0002010220D3
:1008400020200001020C121E1F120C0C12120C129E
:100850001F0C1A14041E05242A1E1F021C141D102E
:1008600020201D1F0814111F101E041E1E021C0C28
:10087000120C3E0A040C123E1E040214160A020F49
:10088000120E101E0E100E1E081E120C1226281E0E
:10089000322A26041E21001F00211E040102013FEE
:1008A000213F172B152010204C4F41444552001773
:1008B0002B16201314000A4E6F20534420636172DC
:1008C00064206F720A6E6F204C4F414445522E488F
:1008D00045580A0A153A45786974001D20466C612E
:1008E0007368696E670A20206C6F616465722E2ED2
:1008F0002E0A0A444F4E2754205455524E204F463C
:100900004621000000000023002600290004040402
:1009100004040404040202020202020303030303A8
:100920000301020408102040800102040810200185
:100930000204081020000000080002010000030467
:1009400007000000000000000000A81911241FBECD
:10095000CFEFD8E0DEBFCDBF11E0A0E0B1E0E0E630
:10096000FAE302C005900D92AE37B107D9F724E043
:10097000AEE7B1E001C01D92A134B207E1F714E087
:10098000C6EAD4E004C02197FE010E94231DC53AA7
:10099000D107C9F70E942C130C942E1D0C94000053
:1009A000CF92DF92EF92FF920F931F93CF93DF933B
:1009B0006C017A018B01C0E0D0E0CE15DF0589F033
:1009C000D8016D918D01D601ED91FC910190F081DE
:1009D000E02DC6010995892B11F47E0102C02196F4
:1009E000ECCFC701DF91CF911F910F91FF90EF9056
:1009F000DF90CF900895089580E090E008950E94E0
:100A0000291DCF93DF9300D000D0CDB7DEB761159D
:100A100071058105910579F09B01AC0169833A83E9
:100A20004B835C830E942E1B29813A814B815C8120
:100A30000E94521B03C060E070E0CB010F900F904A
:100A40000F900F90DF91CF910895DC01ED91FC9113
:100A50000190F081E02D09946115710579F0FB0199
:100A600001900020E9F73197AF01461B570BDC01DD
:100A7000ED91FC910280F381E02D099480E090E0FB
:100A800008954F925F926F927F92EF92FF920F9331
:100A90001F93CF93DF93CDB7DEB7A1970FB6F8942E
:100AA000DEBF0FBECDBF7C01FA01CB0119A22230FF
:100AB00008F42AE08E010F5D1F4F422E512C612C4D
:100AC000712CBF01A30192010E94841BF901CA018C
:100AD000015011096A3014F4605D01C0695CD801ED
:100AE0006C93232B242B252B61F7B801C7010E949F
:100AF0002C05A1960FB6F894DEBF0FBECDBFDF91D7
:100B0000CF911F910F91FF90EF907F906F905F902A
:100B10004F900895833081F028F4813099F082302D
:100B2000A1F008958730A9F08830B9F08430D1F46D
:100B3000809180008F7D03C0809180008F778093AB
:100B40008000089584B58F7702C084B58F7D84BD01
:100B500008958091B0008F7703C08091B0008F7DA1
:100B60008093B00008951F93CF93DF93282F30E038
:100B7000F901EB5CF64F8491F901EF5DF64FD491EA
:100B8000F901E35FF64FC491CC23C9F0162F811110
:100B90000E948A05EC2FF0E0EE0FFF1FE258FF4F96
:100BA000A591B4918FB7F894111105C09C91ED2FC8
:100BB000E095E92302C0EC91ED2BEC938FBFDF9120
:100BC000CF911F910895CF93DF9390E0FC01EF5DEB
:100BD000F64F2491FC01E35FF64F8491882361F185
:100BE00090E0880F991FFC01EC58FF4FC591D491FC
:100BF000FC01E258FF4FA591B491611109C09FB764
:100C0000F8948881209582238883EC912E230BC051
:100C1000623061F49FB7F8943881822F80958323E6
:100C20008883EC912E2B2C939FBF06C08FB7F8942E
:100C3000E8812E2B28838FBFDF91CF9108951F93DA
:100C4000CF93DF93182FEB0161E00E94E30520971B
:100C500011F460E004C0CF3FD10539F461E0812F89
:100C6000DF91CF911F910C94B305E12FF0E0EB5C85
:100C7000F64FE491E330F9F048F4E130B9F0E230B6
:100C8000A1F584B5806284BDC8BD34C0E730E9F009
:100C9000E83019F1E43049F580918000806280935A
:100CA0008000D0938B00C0938A0024C084B58068F4
:100CB00084BDC7BD1FC08091800080688093800084
:100CC000D0938900C093880015C08091B0008068DF
:100CD0008093B000C093B3000DC08091B0008062DB
:100CE0008093B000C093B40005C0C038D1050CF0AB
:100CF000B5CFAFCFDF91CF911F9108958E3008F01F
:100D00008E508770806480937C0080917A0080642C
:100D100080937A0080917A0086FDFCCF80917800E4
:100D20002091790090E0922B08953FB7F89480913C
:100D3000A9019091AA01A091AB01B091AC0126B597
:100D4000A89B05C02F3F19F00196A11DB11D3FBF03
:100D5000BA2FA92F982F8827820F911DA11DB11D91
:100D6000BC01CD0142E0660F771F881F991F4A958D
:100D7000D1F708958F929F92AF92BF92CF92DF9258
:100D8000EF92FF926B017C010E9495064B015C0182
:100D9000C114D104E104F104F1F00E949506DC01D4
:100DA000CB0188199909AA09BB09883E9340A1057E
:100DB000B10570F321E0C21AD108E108F10888EE0C
:100DC000880E83E0981EA11CB11CC114D104E1045B
:100DD000F10419F7DDCFFF90EF90DF90CF90BF9037
:100DE000AF909F908F9008951F920F920FB60F9221
:100DF00011242F933F938F939F93AF93BF93809131
:100E0000B2019091B301A091B401B091B5013091BC
:100E1000A80123E0230F2D3720F40196A11DB11D59
:100E200005C026E8230F0296A11DB11D2093A8013D
:100E30008093B2019093B301A093B401B093B50134
:100E40008091A9019091AA01A091AB01B091AC0150
:100E50000196A11DB11D8093A9019093AA01A093B1
:100E6000AB01B093AC01BF91AF919F918F913F9136
:100E70002F910F900FBE0F901F9018951F920F92F9
:100E80000FB60F9211242F936F937F938F939F939D
:100E90006091AF01662359F18091A7018F5F809324
:100EA000A7019091B001891710F12091AD0181E067
:100EB00028272093AD011092A7018091B1018823CA
:100EC00069F08091000193E4899F802D1124895B52
:100ED000809300010E94EF1C9093AE01222329F021
:100EE0008091AE018093B40002C080E0FBCF9F915F
:100EF0008F917F916F912F910F900FBE0F901F9048
:100F00001895FC0161110DC0178A158A14A213A24D
:100F1000108E1092AE011092AF011092AD0110929E
:100F2000B4000895EF92FF920F931F93CF93DF9336
:100F30001F92CDB7DEB77C018B01411105C060E087
:100F400049830E948107498150E0FA01EE0FFF1F9B
:100F5000EE0DFF1D16870587DA011996AA0FBB1F34
:100F6000AE0DBF1D1D921C92F701E40FF51F81E02D
:100F7000818389E0868B118E138E158E0F90DF9101
:100F8000CF911F910F91FF90EF9008954F925F9234
:100F90006F927F928F929F92AF92BF92CF92DF9289
:100FA000EF92FF920F931F93CF93DF93F901C490B9
:100FB00031965491EC0108A164350CF018C10C2C49
:100FC000000CDD08A62F062E000CBB0B7D01EC0CDF
:100FD000FD1C1E141F040CF00AC140330CF007C1A5
:100FE000A52E842E042E000C9908F401E50FF11DA6
:100FF00057FDFA951E161F060CF0F9C02E5F3F4FE5
:10100000E6012796D7FD279673E0D595C7957A9583
:10101000E1F747FF0AC0A52EA40EC89DA001C99DF7
:10102000500D1124241B350B40E0EA2D0A2C000C36
:10103000FF0BE40FF11D47FDFA95F1971CF050E30B
:10104000A52EA41A67FD60E0F701E535F10514F05F
:10105000E4E5F0E07E2FFC01D484D426862F062E12
:10106000000C990BFC01EA1BFB0BDF017F01F7E091
:10107000EF22FF24E0E8F0E002C0F595E795EA945E
:10108000E2F71E2FB7FD179653E0B595A7955A9531
:10109000E1F72A0F3B1FE42FE77051E001C0550F25
:1010A000EA95EAF7459545954595B4E54B02800DDF
:1010B000911D11248A549E4FC12C0A2C000CBB0890
:1010C000992493942E015524EC2DF0E0EA15FB05AC
:1010D0000CF08DC0F90144910130E1F47C01A12FA5
:1010E000862E881AB82DBE0DB71708F077C0B42F1A
:1010F000BA2321F0E701B881B52BB883B0E0B595EC
:10110000A795109719F431964491A0E8DFEFED1AF6
:10111000FD0AE8CF01111FC0752E70947C01A12F2C
:10112000F901862E881AB82DBE0DB71708F056C0E3
:10113000B42FBA2321F0E701B881B721B883B0E01A
:10114000B595A795109719F431964491A0E8DFEF73
:10115000ED1AFD0AE8CF033031F07C01A12FF9012F
:10116000862E881A37C0752E7094862E7C01A12F8A
:10117000F9018716D8F4B42FBA2359F0E701B881E2
:10118000682C6D2460FE02C0B52B02C0B721E701B8
:10119000B883B0E0B595A795109719F431964491AE
:1011A000A0E88394DFEFED1AFD0AE3CFD92416C03F
:1011B000B42FBA2321F0E701B881B527B883B0E096
:1011C000B595A795109719F431964491A0E8DFEFF3
:1011D000ED1AFD0AB82DBE0DB71750F3550F19F4CF
:1011E0008C5A9F4F51E0C394240D351D6DCFDF9174
:1011F000CF911F910F91FF90EF90DF90CF90BF9014
:10120000AF909F908F907F906F905F904F900895D8
:10121000FC01643508F053C0403308F050C090A181
:10122000742F759575957595262F062E000C330B2A
:10123000542F57709230A1F4F901EA54FE4F84E51F
:101240007802E00DF11D1124808190E0052E02C08E
:10125000959587950A94E2F78095982F91700AC02A
:10126000933041F484858170462740954170841302
:1012700003C014C0911112C084E57802200D311D05
:101280001124F901EA54FE4F81E090E001C0880F7B
:101290005A95EAF780959081892310C084E57802F9
:1012A000200D311D1124F901EA54FE4F81E090E038
:1012B00001C0880F5A95EAF79081892B80830895A1
:1012C000BF92CF92DF92EF92FF920F931F93CF9333
:1012D000DF931F92CDB7DEB77C01D62EC42E002E31
:1012E000000C110B040F111D47FD1A954C2D0C2CF1
:1012F000000C550B401751077CF4B12CB21654F476
:101300006B2D6D0D4C2DC70129830E940809B394E4
:101310002981F4CFC394EACF0F90DF91CF911F9131
:101320000F91FF90EF90DF90CF90BF9008956F9254
:101330007F928F929F92AF92BF92CF92DF92EF9265
:10134000FF920F931F93CF93DF93EC016A3019F450
:101350002D819885A1C06D3009F4A4C01885BA8488
:10136000D98488A083E58D150CF47FC08FE28B159E
:101370000CF47BC08C8190E00197189F9001199F1D
:10138000300D1124C9018D0D911DD7FC9A951816A9
:1013900019060CF06AC08D81819FC00111248B0D4C
:1013A000911DB7FC9A95181619060CF05EC09D2C7D
:1013B000CD2CE62EF12CEC2DED190E2E000CFF0B92
:1013C0008C8190E0E817F9070CF04EC00197E81700
:1013D000F90779F0E89E9001E99E300DF89E300DF6
:1013E0001124E20FF31F8E8D9F8DE80FF91F74906B
:1013F00001C0712C6B2CAB2C2A2D2B19022E000C4A
:10140000330B8D8190E0281739075CF570FE10C012
:10141000113031F44A2D6C2DCE010E9408091DC0F7
:10142000012F212F462D692DCE010E94600915C084
:1014300089A198A1891789F088A3113031F44A2D28
:101440006C2DCE010E94080907C0012F212F462DC7
:10145000692DCE010E94600988A27694A394610E42
:10146000CBCFC394910EA7CF88A228853C818985D4
:10147000329F800D112489879F81992399F0082E2E
:10148000000C990B44E550E0239F401951091124A9
:10149000481759073CF49D818A85299F800D1124A6
:1014A0008A87198681E090E0DF91CF911F910F919B
:1014B000FF90EF90DF90CF90BF90AF909F908F9074
:1014C0007F906F9008958F929F92AF92BF92CF922C
:1014D000DF92EF92FF9283E090E090939D018093E2
:1014E0009C01109294011092950110929601109215
:1014F000970181E090E090939B0180939A01EEE741
:10150000F1E01192119281E0E239F807D1F788E019
:1015100090E00E94B319FC011182108213821282A2
:1015200083E090E09583848316821782F0937F0195
:10153000E0937E0181E090E090939301809392018B
:1015400082E090E09093990180939801C090D0033D
:10155000D090D103C094D094E12CF12C0E94950638
:101560004B015C010E949506A501940120953095E0
:101570004095509560957095809590950E94DF1CE0
:101580009B01AC01C701B6010E94DF1C4B015C014D
:101590008091B7039091B8036C01E12CF12C0E946B
:1015A0009506C60ED71EE81EF91EC701B601680DC6
:1015B000791D8A1D9B1D611571058105910551F0ED
:1015C000FF90EF90DF90CF90BF90AF909F908F9063
:1015D0000C94331BFF90EF90DF90CF90BF90AF90B3
:1015E0009F908F900895CF92DF92EF92FF920F938A
:1015F0001F93CF93DF9380912604882309F4D0C0F2
:1016000081E080930C0410920B0410920A04109253
:10161000CE038093240480932504CDEBD6E01CE018
:101620000E94D90B8823E1F3FE018491882319F0ED
:101630000091090401C000E02BE535E040E060E0E6
:1016400084E094E00E94C6074CE0400F2BEC35E0AC
:1016500060E084E094E00E94C60710920D041093AD
:101660000E048DEB96E00E941C1180910804982FC7
:10167000990F890F81958D5A80930D0480910904EB
:10168000982F990F890F8195835D80930E04809127
:10169000270484FF03C087E595E002C083E595E059
:1016A0000E943D1180910804982F990F890F819510
:1016B0008D5A80930D0480910E048F5F80930E04E9
:1016C0008091E003882319F08FE495E002C08BE459
:1016D00095E00E943D1180910804982F990F890F81
:1016E00081958D5A80930D0480910E048F5F8093B5
:1016F0000E0487E495E00E943D118091CC03813077
:10170000C9F48091E0038F5F6091E10387FD09C018
:10171000082E000C990B70E06F5F7F4F0E94FB1C3E
:10172000682F6093E00340E068EC76E08BED93E097
:101730000E9492078091CB038130A9F0809126040A
:10174000482F50E060E070E0C0902704D09028045B
:10175000E0902904F0902A04C416D506E606F706A0
:10176000B8F08F3FA9F08FEF8093260460E08BEDF7
:1017700093E00E9481071092DC0340E065EC70E08A
:101780008BED93E00E94920781E08093CE0308C026
:101790008091CD03813009F043CF0E944D1140CF9D
:1017A000DF91CF911F910F91FF90EF90DF90CF903D
:1017B00008954F925F926F927F928F929F92AF9215
:1017C000BF92CF92DF92EF92FF920F931F93CF932E
:1017D000DF9300D000D01F92CDB7DEB74091360422
:1017E0005091370460913804709139042FB7F89400
:1017F0008091B2019091B301A091B401B091B50173
:101800002FBF481B590B6A0B7B0B8091350490E06E
:10181000A0E0B0E000913104109132042091330433
:101820003091340484179507A607B70730F40115E3
:1018300011052105310509F038C3012B022B032BBB
:1018400009F031C38091CD0381508E3F30F58091F6
:10185000CC03813039F58091E0038F5F6091E10323
:1018600087FD09C0082E000C990B70E06F5F7F4F59
:101870000E94FB1C682F6093E0038FEA98E090932E
:101880003B0480933A0488E480933C0440E068EC95
:1018900076E08BED93E00E9492078091CD0381501A
:1018A0008E3F70F48091CB03813009F0AAC382EAA5
:1018B00098E090933B0480933A0488E480933C043E
:1018C00080E00E9482118091DC03882309F4ADC07E
:1018D0008091F0038111A9C08091E8039091E90300
:1018E000E091ED03F091EE03EE0FFF1FE80FF91FFB
:1018F000459154914115510501F52091EC032223A6
:1019000031F01092EE031092ED03FC0114C010921E
:10191000DC038091DB03882341F080E00E94821188
:10192000E091ED03F091EE032FC060E08BED93E0CA
:101930000E9481077AC0459154919A013695279566
:101940003695279540FF51C0CA0116E096958795B8
:101950001A95E1F78F71952F9695969596959051DA
:101960002F70223071F1F8F4211117C08B3008F07C
:101970008AE08093F103E091ED03F091EE0331965C
:10198000F093EE03E093ED03EE0FFF1F8091E80369
:101990009091E903E80FF91FCECF213061F760E0A5
:1019A0000E94C311E8CF2330B1F0243021F72091F9
:1019B000DF03829F802D11248093F8039093F90315
:1019C000DACF2091DF03829F802D11248093F403CE
:1019D0009093F503D0CF2091DF03829F802D1124B7
:1019E0008093F6039093F703C6CF2F732093EF03F2
:1019F0008091DF03859F802D11248093F003109246
:101A000000041092FF031092FE0381E08093F20322
:101A10008093AD011092F3038091ED039091EE035A
:101A200001969093EE038093ED038091F203882357
:101A300009F4F3C08091F003811106C060E08BEDE2
:101A400093E00E948107E9C081508093F003809168
:101A50000004811148C02091FE033091FF032F5FE5
:101A60003F4FC901880F991FE091FA03F091FB03E2
:101A7000E80FF91F65917491862F87708093010498
:101A8000AB01E3E056954795EA95E1F7CA019695D3
:101A90008795972F96959695909302048F739091C2
:101AA000DF03899F802D11248093000441704093AF
:101AB000B1013093FF032093FE038091FC0390E07B
:101AC0002817390780F02091FD03222339F0821B6B
:101AD00091099093FF038093FE0305C060E08BEDB6
:101AE00093E00E948107809100048150809300045C
:101AF0008091F30321E0280F2093F3034091EF033B
:101B000030910204340F8091E703380F3093DD03E6
:101B10006091F603662371F070E0822F022E000CB4
:101B2000990B0E94FB1C8091F703869F300D1124B6
:101B30003093DD038091DD0390E0849664E270E0F1
:101B40000E94FB1C8093DD033091F1033093DE0390
:101B50006091F403662381F0062E000C770B822F30
:101B6000022E000C990B0E94FB1C8091F503869FAE
:101B7000300D11243093DE036091F8036623A1F049
:101B8000822F220F990B70E00E94FB1CCB0162E0B8
:101B900070E00E94FB1C2091F9039091DE03289FC6
:101BA000900D11249093DE038091DE034F3341F0BA
:101BB0008A300CF089E087FD80E08093DE0302C06C
:101BC0001092DE03F894E091DD03F0E0E253F94F68
:101BD000E491E093B0013091DE03209103043203DD
:101BE00090011124409101044203C001439F900DD4
:101BF00011240090E00302C0880F991F0A94E2F7B5
:101C000097FF02C081589F4F880F892F881F990B1B
:101C10008093AF018093AE01789480913C04882337
:101C200009F48DC08C3020F49CE0E92EE81A01C044
:101C3000E12CFF24F394F0920C04109224041092EF
:101C40002504309109044DE2D42E1D2D131B1E0DC9
:101C500003E0030F2EE4412F63E084E094E03D8332
:101C60000E9460093D810CEF030F1D5F202F41E0B2
:101C7000612F80E50E949412202F42E0612F83E0C3
:101C80000E949412F0922404F09225040091090419
:101C900013E0100FD01ADE0C23E04D2D622F84E0EC
:101CA00094E02D830E9408092D812F5F2135A9F72B
:101CB0001D0DFF24FA94F10E23E04F2D622F84E0D6
:101CC00094E02D830E9408092D812F5F2135A9F70B
:101CD000035033E0D30E402F6D2D80E00E947C1224
:101CE000402F6D2D83E50E947C1241E06D2D83E035
:101CF0000E94FE1142E06D2D80E50E94FE111450FD
:101D000044E0612F80E50E94FE1148E0612F83E0EE
:101D10000E94FE1184E080930D0480910904E81A6A
:101D20008E2D815D80930E0480913A0490913B0446
:101D30000E941C1180913C04815080933C0480914E
:101D4000D2039091D303892B09F485C011E010933D
:101D50002404109225049091080485E5891B809342
:101D60000D0410920E046091CF03613009F454C049
:101D700030F08091CE03653008F066C061C060E04D
:101D80008BED93E00E9481071092DC0310930C040A
:101D9000E0E2F7E0E491EF5FE0930804E1E2F7E0CE
:101DA000E491EF5FE093090482E297E090932304CB
:101DB000809322041092D3031092D20310920A044B
:101DC00018EA0E94D90B8823E1F382E197E00E9490
:101DD0001C114091D0035091D10360E070E02AE0E3
:101DE00084E094E00E9441058DEF96E00E941C1172
:101DF000412F42954F7050E060E070E084E094E045
:101E00000E94371082EF96E00E941C118091CB0354
:101E1000813009F0FCC01FC08091270490912804F4
:101E2000A0912904B0912A048F709927AA27BB2773
:101E30000897A105B10510F467E009C068E707C07D
:101E4000882349F06B5F03C0882329F06FE284E0A8
:101E500094E00E9425050E94DC1080910A04811103
:101E60000EC088EF91E0E6EBF1E0DF019C011D92EE
:101E700021503040E1F710920D0410920E040E94A0
:101E800095066093310470933204809333049093E9
:101E9000340420912D0430912E04621B730B709337
:101EA0002C0460932B0480E0CCC02FB7F894809171
:101EB000B2019091B301A091B401B091B5012FBFCF
:101EC00020913504820F911DA11DB11D8093360410
:101ED00090933704A0933804B09339048091270479
:101EE00090912804A0912904B0912A040196A11D83
:101EF000B11D8093270490932804A0932904B093E4
:101F00002A04109231041092320410923304109279
:101F100034040E94950660932D0470932E048093E0
:101F20002F04909330048091B7039091B8032FE071
:101F3000289F8001299F100D112485E10E947E06B3
:101F4000800F911F24E0969587952A95E1F790934D
:101F5000B8038093B7032091B603222309F44BC042
:101F60006091BA03262F30E040E050E029833A83A5
:101F70004B835C83C090BB03D12CE12CF12C4091AE
:101F8000BE035091BF034A01A12CB12C2091BC0388
:101F90003091BD032901612C712C8217930728F021
:101FA0009C014817590708F49A01C901A0E0B0E064
:101FB0009C01AD01241935094609570969817A81C7
:101FC0008B819C816C197D098E099F090E94DF1C01
:101FD000A501940124193509460957090E94521B8D
:101FE000C20ED31EE41EF51EC092B9036C2D70E024
:101FF00085E00E941F060E9469100E94EF1281E096
:1020000020C0893209F05CCC0E944D1159CC11508E
:1020100009F0D7CE60E070E085E00E941F0683B72C
:10202000817F846083BF83B7816083BF83B7816012
:1020300083BF889583B78E7F83BF83B78E7F83BF2F
:10204000C0CE0F900F900F900F900F90DF91CF9117
:102050001F910F91FF90EF90DF90CF90BF90AF90C6
:102060009F908F907F906F905F904F900895CF9248
:10207000DF92EF92FF920F931F93CF93DF9377FF3F
:102080001DC06A017B01EC016DE20E9425058C01F7
:1020900044275527BA014C195D096E097F092AE0CA
:1020A000CE010E944105800F911FDF91CF911F91BA
:1020B0000F91FF90EF90DF90CF9008952AE0DF918D
:1020C000CF911F910F91FF90EF90DF90CF900C94E4
:1020D0004105CF92DF92EF92FF920F931F93CF9320
:1020E000DF93C0ECD3E007EC13E0FF24FA9497E011
:1020F000E92EE00E62E088810E94E305288130E04D
:10210000F901EB5CF64F8491F901EF5DF64FC49055
:10211000F901E35FF64FD490DD2071F081110E9448
:102120008A05ED2DF0E0EE0FFF1FED5FF64FA59154
:10213000B491EC91EC21B1F4F80180818F5F808340
:1021400060E088810E94E30521960F5F1F4FE01237
:10215000D1CFDF91CF911F910F91FF90EF90DF9042
:10216000CF900895F8018081882371F3F8018F3FA3
:1021700011F41082E5CFF082E3CFCF93C82FF8940B
:1021800060E0809113040E94B30580911404181636
:102190001CF460E00E94B305CEBD00000DB407FE44
:1021A000FDCF8EB58091140418161CF461E00E94D6
:1021B000B3057894CF9108950F931F93CF93809197
:1021C00010048F5F8093100406EB11E0C0E08C2FA9
:1021D00080640E94BD1080E80E94BD1061E0809183
:1021E00013040E94B3058091140418161CF460E0D7
:1021F0000E94B30580E090E0F801E80FF91F20810C
:102200002EBD00000DB407FEFDCF2EB5019684351E
:10221000910591F78091140418161CF461E00E9456
:10222000B305CF5F0C5A1F4FC63089F680E4CF91BB
:102230001F910F910C94BD100F931F93CF93DF93B9
:102240008C01C0E0D0E0F801EC0FFD1F6491662323
:1022500071F0E0910404F09105040190F081E02D0B
:1022600084E094E00995892B11F02196ECCFCE0102
:10227000DF91CF911F910F910895CF93DF930E942B
:102280001C11EC0164E771E084E094E00E942C05ED
:102290008C0F9D1FDF91CF91089588EF91E0E6EBC1
:1022A000F1E0DF019C011D9221503040E1F71092D6
:1022B0000D0410920E048BED98E00E941C110E94F8
:1022C000DC108CB583608CBD8DB58E7F8DBD87E7AE
:1022D00091E0EEEFFFE3099510920A0486EB98E097
:1022E0000E943D110E94DC100E9469108091CB0376
:1022F000813039F062E370E080E090E00E94BA063D
:10230000F3CF0895CF93DF93482F50E0EA01CA54EA
:10231000DC4F9DA19923A1F19EA1911131C09EA5F1
:10232000FA01EE0FFF1FE354FC4F35A126A1E32F66
:10233000F22FE90FF11DE90FF11D259134912F3F87
:102340009FEF390711F41DA21BC039AB440F551F75
:10235000FA01E054FC4F3327220F331F05A0F6A1EA
:10236000E02DE20FF31F65917491811105C040E0EB
:102370008BED93E00E94920729968DA18F5F8DA32C
:10238000DF91CF91089570E0DB01AA0FBB1FAA5423
:10239000BC4FD4962C91D497D5969C91D597E22F8B
:1023A000F92FE80FF11DE80FF11D259134915F968B
:1023B00096963C932E939597F901859194919091DF
:1023C000DF03989F802D11246A547C4FFB01B19646
:1023D00085A3F901A591B4914B2F50E0E82FF0E0CF
:1023E0004E175F0720F4F90125913491832FFB01EB
:1023F000B296899F802D112485A30895AF92BF9234
:10240000CF92DF92EF92FF920F931F93CF93DF93C0
:10241000182F062FC1E0D3E08AEFD82E9EEFE92EC9
:10242000842F8470C82E842F8270B82E842F8870D9
:10243000A82E4170F42E8C2F880F8F5FE80ECC20D1
:1024400081F04D2F400F6C2F610F84E094E00E94CB
:1024500008094C2F400F6D2F610F84E094E00E941B
:102460000809BB2081F0402F4D1B6C2F610F84E0C9
:1024700094E00E940809402F4C1B6D2F610F84E0EF
:1024800094E00E940809AA2081F04C2F400F612F90
:102490006D1B84E094E00E9408094D2F400F612FCE
:1024A0006C1B84E094E00E940809FF2081F0402F1B
:1024B0004C1B612F6D1B84E094E00E940809402FA3
:1024C0004D1B612F6C1B84E094E00E940809CD171E
:1024D00044F4E7FC04C0D150D394D394ED0CCF5F07
:1024E000AACFDF91CF911F910F91FF90EF90DF90D6
:1024F000CF90BF90AF9008950F931F93CF93DF932A
:10250000182F062FD42FC0E0CD174CF44C2F400FBE
:10251000612F84E094E00E940809CF5FF5CFDF913E
:10252000CF911F910F9108959F92AF92BF92CF923A
:10253000DF92EF92FF920F931F93CF93DF93F82ECA
:10254000E62EB22E03E0020FD0E0C3E08AEFC82EE1
:102550001EEF842F8170982EAA24A394A20E42709D
:10256000D42EDF5F802F8B19180F992081F04C2F0C
:10257000440F4A0D6E2D6C1B8D2F8F0D0E947C1207
:10258000402F6E2D6D1B8C2F8F0D0E947C12DD2035
:1025900081F04C2F440F4A0D6E2D6C1B8F2D8D1B1F
:1025A0000E947C12402F6E2D6D1B8F2D8C1B0E9464
:1025B0007C12DC1744F417FD04C0C150C394C394CB
:1025C0001C0D0E5FCECFDF91CF911F910F91FF9029
:1025D000EF90DF90CF90BF90AF909F900895809143
:1025E000D2039091D303892BB1F18091DA038F71DB
:1025F00069F584E10E947E06BC01990F880B990B56
:102600000E94E61B26EE3FE34EEC50E40E944A1C7B
:102610000E94B51B9B017093D1036093D003672B7D
:1026200091F084E08093CF03E2EDF3E080E041910C
:1026300051912417350718F48093CF0308958F5FC5
:102640008430A9F703C08FEF8093CF038091DA0322
:102650008F5F8093DA030895CF93DF93CDB7DEB712
:1026600027970FB6F894DEBF0FBECDBF789484B520
:10267000826084BD84B5816084BD85B5826085BD7E
:1026800085B5816085BD80916E00816080936E000C
:1026900010928100809181008260809381008091FE
:1026A00081008160809381008091800081608093AF
:1026B00080008091B10084608093B1008091B0006F
:1026C00081608093B00080917A00846080937A006A
:1026D00080917A00826080937A0080917A00816094
:1026E00080937A0080917A00806880937A001092BB
:1026F000C10082E38093350481E090E0A0E0B0E087
:102700008093310490933204A0933304B093340443
:102710008FEF80932604E0E8F7E72591349121308C
:10272000304C09F049C0E6E9F7E7E491E0930F0483
:10273000E7E9F7E7E491E093BA03E8E9F7E7E49122
:10274000E093BB03E9E9F7E7859194919093BD038A
:102750008093BC03EBE9F7E7859194919093BF03D5
:102760008093BE0388E08093E103EEE9F7E7E4910C
:10277000E093E003EFE9F7E7E491E0932604E0EA71
:10278000F7E7859194919093D3038093D203E2EA83
:10279000F7E7859194919093D5038093D403E4EA6D
:1027A000F7E7859194919093D7038093D603E6EA57
:1027B000F7E7859194912CC09CE390930F041092BD
:1027C000BA038093BB0380E293E09093BD038093B0
:1027D000BC0384ED93E09093BF038093BE0388E035
:1027E0008093E1038093E0038CEA9DE09093D30310
:1027F0008093D2038EED9DE09093D5038093D40314
:1028000084E79EE09093D7038093D6038CE39FE008
:102810009093D9038093D80311E01093B6036FEF20
:1028200070E085E00E941F0688E08093C00389E085
:102830008093C10387E08093C20386E08093C30343
:1028400004E00093C40382E08093C50381E1809398
:10285000C6030E9469108CE39FE09093D10380939C
:10286000D0030093CF031093DA038BE0809312041C
:102870008DE08093110480E1809313048EE08093B7
:1028800015048FE08093140410930C041093240417
:102890001092250410930B04E0E2F7E0E491EF5F5F
:1028A000E0930804E1E2F7E0E491EF5FE0930904CC
:1028B00082E297E090932304809322041FB7F89458
:1028C00080919E01811127C0E7E1F9E08491EBE25C
:1028D000F9E09491E82FF0E0EE0FFF1FEC58FF4F66
:1028E000A591B491EC91E92321F461E08AE00E9482
:1028F000B30561E08AE00E94E3058CB580618CBD80
:102900008CB580648CBD61E08DE00E94E30561E0E0
:102910008BE00E94E30580919E018F5F80939E0172
:102920001FBF8CB58F7D8CBD8CB58C7F81608CBDBD
:102930008DB581608DBD8CB58C608CBD61E0809162
:1029400012040E94E30561E0809111040E94E305F6
:1029500061E0809113040E94E3058091150418162C
:102960001CF461E00E94E3058091140418161CF425
:1029700061E00E94E30580911504181674F460E08C
:102980000E94B3056AE070E080E090E00E94BA0621
:1029900061E0809115040E94B30580911104082E16
:1029A000000C990BFC01E35FF64FE491F0E0EE0FB1
:1029B000FF1FE258FF4F2591349130931904209363
:1029C0001804FC01EF5DF64FE491E0931F04809141
:1029D0001204082E000C990BFC01E35FF64FE49102
:1029E000F0E0EE0FFF1FE258FF4F25913491309336
:1029F000170420931604FC01EF5DF64FE491E09379
:102A00001E0480911404082E000C990BFC01E35F56
:102A1000F64FE491F0E0EE0FFF1FE258FF4F2591D3
:102A2000349130931B0420931A04FC01EF5DF64FA0
:102A3000E491E093200480911304082E000C990B7C
:102A4000FC01E35FF64FE491F0E0EE0FFF1FE25868
:102A5000FF4F2591349130931D0420931C04FC01F9
:102A6000EF5DF64FE491E093210481E20E94BD10F6
:102A700084E10E94BD1080910F0487FF03C08FE79F
:102A800080930F0480910F0480680E94BD1080E243
:102A90000E94BD108CE00E94BD100E94DC1081E0FD
:102AA0008093DF0384E08093030480E790E09093B9
:102AB000EB038093EA0360E080E00E94C31161E0D1
:102AC00070E083E00E941F068091B100887F8160E2
:102AD0008093B100F89410928000109281001092BF
:102AE00085001092840088E191E0909389008093A2
:102AF00088008091810088608093810080918100AE
:102B000081608093810080916F00826080936F006C
:102B100078940E94EF128091CC03813019F41092C6
:102B2000E0030BC08091CF038823C9F340E068E83D
:102B300070E08BED93E00E9492070E94F30A0E94DE
:102B4000630A0FE911E0E12CF12CC7010E943C1B44
:102B5000D8018D938D01BFEFEB1AFB0AE4E0EE166E
:102B6000F10499F7BEEC8B2E99249A94A92CB92CD8
:102B700010E0212E10E0312E02E0C02ED12C11E009
:102B80000E94D90B882309F4D7C3F3E0F0932404FF
:102B90001092250425E333E040E060E084E094E017
:102BA0000E94C607109324041092250423E231E00A
:102BB00040E060E084E094E00E94C6074091940108
:102BC0005091950160919601709197014A3051059D
:102BD0006105710514F485E306C0443651056105AD
:102BE000710524F481E380930D042EC0483E23E058
:102BF00052076105710514F48DE2F5CF403137E2DB
:102C000053076105710514F489E2EDCF403A86E877
:102C1000580781E06807710514F485E2E4CF403479
:102C200092E459079FE06907710514F481E2DBCF54
:102C30004038A6E95A07A8E96A07710514F48DE13E
:102C4000D2CFB9E1B0930D0410930E0484E094E068
:102C50000E94371060909C0170909D01E4E06E1618
:102C60007104B4F027E031E040E066E484E094E0F1
:102C70000E94C6078DE480930D0410930E04A301F7
:102C8000770C660B770B84E094E00E94371013C03A
:102C90000CE3E12CF12CE614F7046CF427E031E0AE
:102CA00040E0602F84E094E00E94C607FFEFEF1A37
:102CB000FF0A095FF0CF25ED30E04CE163E484E0EA
:102CC00094E00E94C60723E0209324041092250478
:102CD00001E041E268E484E094E00E94600921E0C0
:102CE00040E260E584E094E00E94600922E041E275
:102CF0006FE484E094E00E94600910922404109232
:102D0000250402E022E049E266E484E094E00E94C7
:102D1000600922E049E26FE484E094E00E946009E7
:102D2000109324041092250480919C0190919D01A0
:102D3000181619062CF0AEE7EA2EA1E0FA2E0FC203
:102D40008091C703813061F480919A0190919B0139
:102D5000181619062CF4019790939B0180939A0101
:102D60008091CB03813061F480919A0190919B0115
:102D7000181619062CF4019790939B0180939A01E1
:102D80008091C903813061F480919A0190919B01F7
:102D9000823091052CF4019690939B0180939A01C7
:102DA0008091CC03813061F480919A0190919B01D4
:102DB000823091052CF4019690939B0180939A01A7
:102DC0008091A5019091A60101979093A60180930F
:102DD000A501181619060CF46DC1FEE76F2EF1E07F
:102DE0007F2E7301D701ED91FC911197309709F473
:102DF0007CC08781882361F01D921C928091920192
:102E000090919301019790939301809392016DC0EB
:102E1000848195811816190624F40197958384837B
:102E200005C08281938101969383828382819381FD
:102E30008430910531F08A30910519F08031910587
:102E400059F526812223B1F01682409194015091C8
:102E5000950160919601709197014F5F5F4F6F4FA1
:102E60007F4F409394015093950160939601709326
:102E7000970112C0178340E06DEC70E08BED93E09A
:102E80000E94920780919C0190919D0101979093DF
:102E90009D0180939C0129C00190F081E02DE05BB1
:102EA000FE4F208130E082179307FCF0F70111827A
:102EB00010828091920190919301019790939301D8
:102EC000809392018091940190919501A091960137
:102ED000B09197010A96A11DB11D80939401909322
:102EE0009501A0939601B0939701F2E0EF0EF11CCB
:102EF00022E9E21621E0F20609F074CF40E068EC26
:102F000076E08BED93E00E9492078091980190917A
:102F10009901181619062CF4019790939901809342
:102F20009801609194017091950180919601909122
:102F300097016F3E32E07307810591055CF4A501AE
:102F400094010E94521B2F5E3F4F3093A6012093A5
:102F5000A50104C0D092A601C092A501809198015C
:102F600090919901181619060CF4A4C08091920151
:102F700090919301181619062CF469E070E080E036
:102F800090E004C061E070E080E090E00E94010504
:102F90007093A4016093A3018091A3019091A40177
:102FA000892B09F087C080E090E0D3012D913D91FD
:102FB0003D01232B09F083C040919401509195016C
:102FC00060919601709197019C01220F331F3F83FE
:102FD0002E834D3231E0530761057105CCF464E076
:102FE00070E080E090E00E9401052B013C0188E048
:102FF00090E00E94B319FC011182108213821282A8
:103000004FEF441A540A640A740A558244823DC040
:1030100049355240610571052CF462E070E080E0B2
:1030200090E004C063E070E080E090E00E94010561
:103030002B013C0164E070E080E090E00E9401051B
:103040009B01AC012F5F3F4F4F4F5F4F29833A8366
:103050004B835C8388E090E00E94B319FC015182AD
:1030600040824114510419F4138212820AC031E0E3
:103070004316510421F042E04416510411F45382E6
:10308000428289819A819583848316821782AE81D8
:10309000BF81A258BE4FED93FC9380919201909115
:1030A000930101969093930180939201D09299019C
:1030B000C09298015EE7E52E51E0F52E17C001960B
:1030C0008A30910509F071CFF5CF828193818330E9
:1030D0009105A1F480919A0190919B01892B01F1B6
:1030E000B2E9EB16B1E0FB0609F425CED701ED916C
:1030F000FD917D0186818111F3CFE7CF8930910564
:1031000039F480919A0190919B01019749F708C089
:103110000F9731F780919A0190919B01029701F7E7
:10312000168340E065EC70E08BED93E00E9492071F
:10313000D7CF8781882301F1828193812EEB30E004
:103140004BE28B30910594F065E384E094E00E94BB
:10315000C607E2E9EE16E1E0FE0609F442C0D70137
:10316000ED91FD917D01309721F7F3CF059714F094
:1031700063E2EBCF60E1E9CF8481958118161906EF
:103180004CF44081BCE04B9F402D112423EB30E0F8
:1031900060E0DBCF828193819C01220F331F820F7D
:1031A000931FFC01E55FFE4F8281823091F038F47D
:1031B000882361F0813069F629EA30E00FC083305E
:1031C00059F0843031F626E930E008C023EB30E0D6
:1031D00005C02FE930E002C02EEB30E04181608174
:1031E000B4CF80919A0190919B01009729F42FE030
:1031F00031E040E26EE00EC08130910529F42FE00D
:1032000031E040E261E206C0029741F42FE031E094
:1032100040E263E384E094E00E94C60780919C0151
:1032200090919D01181619060CF482C080919401AA
:1032300090919501A0919601B091970140919F01C5
:103240005091A0016091A1017091A2014817590706
:103250006A077B070CF449C01092240410922504DD
:1032600007E025E244E168E184E094E00E9460091F
:103270001093240410932504F9E1F0930D0425E143
:1032800020930E046FE571E084E094E00E942C0529
:10329000109224041092250424E549E260E084E0C1
:1032A00094E00E9460091093240410922504109366
:1032B0000D043AE230930E0469E671E084E094E094
:1032C0000E942C058DE280930D044AE240930E0487
:1032D00040919F015091A0016091A1017091A201C4
:1032E00084E094E00E94371023C080939F01909364
:1032F000A001A093A101B093A2018FE9682E81E003
:10330000782EE12CF12CD3016D913D01C7016D8325
:103310000E943C1B6D81681719F0C7010E94441B75
:10332000BFEFEB1AFB0AE4E0EE16F10461F794CF6D
:103330008091CD03813039F02114310409F420CC7F
:103340000E9400001CCC0E94F30A0E94630AF4CF82
:10335000109207041092060487E591E0909305040B
:10336000809304040895CF93DF938230910510F485
:1033700082E090E0E0913F04F091400420E030E0F2
:10338000C0E0D0E0309711F14081518148175907D2
:10339000C0F04817590761F482819381209719F092
:1033A0009B838A832BC09093400480933F0426C064
:1033B0002115310519F04217530718F49A01BE017F
:1033C000DF01EF010280F381E02DDCCF2115310513
:1033D00009F1281B390B2430310590F412968D9198
:1033E0009C9113976115710521F0FB0193838283F2
:1033F00004C09093400480933F04FD01329644C082
:10340000FD01E20FF31F81939193225031092D9317
:103410003C933AC020913D0430913E04232B41F46B
:10342000209103013091040130933E0420933D0428
:1034300020910101309102012115310541F42DB790
:103440003EB74091050150910601241B350BE091D8
:103450003D04F0913E04E217F307A0F42E1B3F0B4E
:103460002817390778F0AC014E5F5F4F24173507F6
:1034700048F04E0F5F1F50933E0440933D048193EC
:10348000919302C0E0E0F0E0CF01DF91CF91089589
:103490000F931F93CF93DF93009709F48CC0FC0127
:1034A00032971382128200913F041091400401155B
:1034B000110581F420813181820F931F20913D04F9
:1034C00030913E042817390779F5F0933E04E093D4
:1034D0003D0471C0D80140E050E0AE17BF0750F482
:1034E00012962D913C911397AD012115310509F1EB
:1034F000D901F3CF9D01DA01338322836081718189
:10350000860F971F8217930769F4EC012881398190
:10351000260F371F2E5F3F4F318320838A819B8187
:1035200093838283452B29F4F0934004E0933F0476
:1035300042C01396FC93EE931297ED014991599175
:103540009E01240F351FE217F30771F480819181EA
:10355000840F951F029611969C938E93828193817E
:1035600013969C938E931297E0E0F0E0D8011296A8
:103570008D919C911397009719F0F8018C01F6CF6B
:103580008D919C9198012E5F3F4F820F931F209148
:103590003D0430913E042817390769F4309729F427
:1035A0001092400410923F0402C0138212821093C2
:1035B0003E0400933D04DF91CF911F910F91089538
:1035C0008F929F92AF92BF92CF92DF92EF92FF9233
:1035D000CF93DF93EC01688179818A819B816115AA
:1035E00071058105910521F464E279ED8BE597E0A1
:1035F0002DE133EF41E050E00E94521B49015A0196
:103600009B01AC01A7EAB1E40E94711B6B017C0134
:10361000ACEEB4EFA50194010E947F1BDC01CB014D
:103620008C0D9D1DAE1DBF1DB7FF03C00197A109E5
:10363000B04888839983AA83BB83BC01CD019F775F
:10364000DF91CF91FF90EF90DF90CF90BF90AF9040
:103650009F908F9008950E94E01A089587E091E06E
:103660000E94E01A08956093070170930801809307
:10367000090190930A010895F999FECF92BD81BD89
:10368000F89A992780B50895262FF999FECF1FBA89
:1036900092BD81BD20BD0FB6F894FA9AF99A0FBE7B
:1036A00001960895052E97FB1EF400940E94691B55
:1036B00057FD07D00E94841B07FC03D04EF40C94E6
:1036C000691B50954095309521953F4F4F4F5F4F67
:1036D000089590958095709561957F4F8F4F9F4F7E
:1036E00008950E94A61BA59F900DB49F900DA49FC6
:1036F000800D911D11240895B7FF0C94711B0E9439
:10370000711B821B930B0895A1E21A2EAA1BBB1BEF
:10371000FD010DC0AA1FBB1FEE1FFF1FA217B3079D
:10372000E407F50720F0A21BB30BE40BF50B661FB3
:10373000771F881F991F1A9469F760957095809577
:1037400090959B01AC01BD01CF010895A29FB001EE
:10375000B39FC001A39F700D811D1124911DB29FC5
:10376000700D811D1124911D08950E94291C88F05F
:103770009F5798F0B92F9927B751B0F0E1F0660F35
:10378000771F881F991F1AF0BA95C9F714C0B13076
:1037900091F00E94431CB1E008950C94431C672FE4
:1037A000782F8827B85F39F0B93FCCF386957795A5
:1037B0006795B395D9F73EF490958095709561958E
:1037C0007F4F8F4F9F4F0895E89409C097FB3EF4B9
:1037D00090958095709561957F4F8F4F9F4F99235E
:1037E000A9F0F92F96E9BB279395F69587957795DC
:1037F0006795B795F111F8CFFAF4BB0F11F460FF9C
:103800001BC06F5F7F4F8F4F9F4F16C0882311F0F3
:1038100096E911C0772321F09EE8872F762F05C007
:10382000662371F096E8862F70E060E02AF09A95A2
:10383000660F771F881FDAF7880F9695879597F997
:10384000089557FD9058440F551F59F05F3F71F090
:103850004795880F97FB991F61F09F3F79F08795F7
:103860000895121613061406551FF2CF4695F1DF80
:1038700008C0161617061806991FF1CF8695710510
:10388000610508940895E894BB2766277727CB0144
:1038900097F908950E945D1C0C94CE1C0E94C01CD8
:1038A00038F00E94C71C20F0952311F00C94B71C2F
:1038B0000C94BD1C11240C94441C0E94211C70F318
:1038C000959FC1F3950F50E0551F629FF001729FC5
:1038D000BB27F00DB11D639FAA27F00DB11DAA1FD4
:1038E000649F6627B00DA11D661F829F2227B00D21
:1038F000A11D621F739FB00DA11D621F839FA00DAC
:10390000611D221F749F3327A00D611D231F849FFB
:10391000600D211D822F762F6A2F11249F57504052
:103920009AF0F1F088234AF0EE0FFF1FBB1F661FCD
:10393000771F881F91505040A9F79E3F510580F096
:103940000C94B71C0C94441C5F3FE4F3983ED4F3F2
:10395000869577956795B795F795E7959F5FC1F73A
:10396000FE2B880F911D9695879597F9089597F9E5
:103970009F6780E870E060E008959FEF80EC089515
:1039800000240A941616170618060906089500243E
:103990000A9412161306140605060895092E0394B8
:1039A000000C11F4882352F0BB0F40F4BF2B11F42C
:1039B00060FF04C06F5F7F4F8F4F9F4F0895DB0103
:1039C0008F939F930E94711BBF91AF91A29F800D17
:1039D000911DA39F900DB29F900D11240895991BE6
:1039E00079E004C0991F961708F0961B881F7A95F6
:1039F000C9F78095089597FB072E16F4009407D019
:103A000077FD09D00E940F1D07FC05D03EF490956C
:103A100081959F4F0895709561957F4F0895AA1BDA
:103A2000BB1B51E107C0AA1FBB1FA617B70710F0A9
:103A3000A61BB70B881F991F5A95A9F780959095DB
:103A4000BC01CD010895EE0FFF1F0590F491E02D0C
:103A5000099481E090E0F8940C942E1DF894FFCF27
:103A600001000041048000010000000D06000F0F5E
:103A700000111800131E04151501170A011C060178
:103A8000220B00241400251E042815012A0E012EE5
:103A90000B01330E00361700371E043B1501401092
:103AA0000145130047190400000000000000000059
:103AB000141414000000009709D004FC04FB044710
:103AC000414D45204F564552004869676873636F02
:0E3AD00072653A000D0A004C4F414445520009
:00000001FF
